:020000040800F2
:10000000C0130020D5000008092D0008FF2A0008B1
:1000100000000000000000000000000000000000E0
:10002000000000000000000000000000093400088B
:10003000000000000000000049320008A935000857
:100040000501000805010008050100080501000878
:100050000501000805010008050100080501000868
:10006000050100080501000805010008110200084B
:100070000501000805010008050100080501000848
:10008000050100080000000000000000A136000883
:1000900000000000B1360008050100080501000855
:1000A0000000000005010008050100080501000826
:1000B000453D00080000000005010008C14D000892
:1000C0000348854600F05AF8004800470D4E0008E6
:1000D000C01300200C4880F308880C480168090E02
:1000E0000B4A914205D10B480B4901600B480C4962
:1000F00001600C4880470C480047FEE7FEE7FEE73A
:10010000FEE7FEE7FEE70000C01300200400000049
:100110001F00000018100240010000000000014014
:10012000000000002D360008C100000830B50B4665
:10013000014600202022012409E00D46D5409D42C1
:1001400005D31D469540491B254695404019154647
:10015000521E002DF1DC30BDD2B201E00270401C15
:10016000491EFBD270470022F6E710B513460A4637
:1001700004461946FFF7F0FF204610BD064C012546
:10018000064E05E0E36807CC2B430C3C984710343F
:10019000B442F7D3FFF798FFE84E0008084F000875
:1001A00070B58C180578401C6B075B0F01D1037884
:1001B000401C2A1106D10278401C03E006780E701C
:1001C000401C491C5B1EF9D12B0705D40023521E8D
:1001D0000DD40B70491CFAE70378401CCB1A921C13
:1001E00003E01D780D70491C5B1C521EF9D5A1421D
:1001F000D8D3002070BD0020704700207047000059
:1002000002460120014B18700020704708000020B2
:1002100010B5024800F06EF810BD00001C0200206E
:1002200010B50446054A2168881A1421FFF77EFF9D
:100230008000206401480838E06310BD08000240D7
:1002400030B50124056CAC40C56B6C60046863601C
:100250004468102C04D10468A2600468E16003E0E3
:100260000468A1600468E26030BD704770B5094859
:10027000C46A056B466BA419002C0AD008220649F3
:10028000204602F03EFC042203491031284602F0C9
:1002900038FC70BD80F7FF1F5200002070B5044687
:1002A00000252120005D022803D00420A063012541
:1002B0001EE0206800680E218843216808602068DD
:1002C000006840084000216808600120216C8840D7
:1002D000E16B486001212120015500BF0021202051
:1002E000015500BF606B002802D02046616B884733
:1002F000284670BD70B50446E06B05682068066846
:100300000420216C8840284000281BD00420304065
:10031000002817D02068006820210840002805D157
:100320002068006804218843216808600420216C4B
:100330008840E16B4860E06A002852D02046E16ABC
:1003400088474EE00220216C88402840002823D0B6
:100350000220304000281FD020680068202108407B
:10036000002808D1206800680A21884321680860B5
:100370000121212001550220216C8840E16B486059
:1003800000BF00212020015500BFA06A002828D00E
:100390002046A16A884724E00820216C8840284034
:1003A00000281ED00820304000281AD0206800689D
:1003B0000E218843216808600120216C8840E16B90
:1003C00048600120A06301212120015500BF0021C8
:1003D0002020015500BF206B002802D02046216B51
:1003E000884770BD70B504460025002C01D101205E
:1003F00070BD022121200155206805681148054083
:10040000A16860680843E16808432169084361699D
:100410000843A1690843E169084305432068056072
:100420002046FFF7FDFE0020A062E06220636063CB
:10043000A063012121200155002120200155002029
:10044000D6E700000FC0FFFFF8B504460D4616467C
:100450001F460020009000BF2020005D012801D130
:100460000220F8BD01212020015500BF2120005DA0
:1004700001282DD10221212001550020A0632068F0
:10048000006840084000216808603B463246294623
:100490002046FFF7D5FEE06A002806D020680068F5
:1004A0000E210843216808600BE0206800680A21DB
:1004B0000843216808602068006804218843216897
:1004C000086020680068012108432168086006E090
:1004D00000BF00212020015500BF0220009000989D
:1004E000BFE731B500F00EF90546009C601C0028FE
:1004F00000D0641C00BF00F005F9401BA042FAD3F5
:1005000038BD000078B50346002200240020D9E061
:10051000012696400D6835402C46002C7ED04D6853
:10052000022D02D04D68122D15D1D508AE001D4602
:100530002035A8595507EE0E0F25B5400646AE43A7
:1005400030465607F60E0D69B5402843D508AD0074
:100550001E4620367051186856000325B5400646E1
:10056000AE4330460D79AD07AD0F5600B540284378
:1005700018604D68012D08D04D68022D05D04D68DA
:10058000112D02D04D68122D18D198685600032500
:10059000B5400646AE4330465600CD68B5402843C8
:1005A00098605868012595400646AE4330461026AF
:1005B0004D6835402D09954028435860D86856004D
:1005C0000325B5400646AE43304656008D68B5401B
:1005D0002843D860012636074D683540B54270D1B2
:1005E00000BF3B4DAD6901263543394EB5613546F7
:1005F000AD69ED07ED0F009500BF00BF354D9608C2
:10060000B600A85995072E0F0F25B5400646AE43F4
:1006100030460925ED06AB4203D100E051E000254C
:100620000AE02D4DAB4201D1012505E02B4DAB4237
:1006300001D1022500E005259607360FB540284375
:10064000244D9608B600A851254D28680546A543B7
:100650002846012636044D683540B54202D105468C
:10066000254328461E4D286068680546A543284650
:10067000012676044D683540B54202D10546254332
:100680002846174D6860A8680546A54328460126F8
:1006900036054D683540B54202D10546254328460A
:1006A0000F4DA860E8680546A54328460126760553
:1006B0004D683540B54202D1054625432846084DD0
:1006C000E860521C0D68D540002D00D020E778BDB1
:1006D00000100240080001400004004800080048E3
:1006E00000040140024613690B40002B01D0012099
:1006F00000E000207047002A01D0816100E08162A3
:10070000704700000148006870470000A00000200A
:1007100002480068401C014908607047A0000020A2
:1007200010B50648006810210843044908600020FD
:1007300000F006F800F018F8002010BD002002407C
:1007400070B5044601F054FA06467D21C900FFF752
:10075000EDFC054601F0DCFD00222146501E00F0B4
:1007600039F8002070BD000008B500BF114880694D
:10077000012108430F49886108468069C007C00FFE
:10078000009000BF00BF00BF0846C06909040843CD
:100790000849C8610846C06909040840009000BFC4
:1007A00000BF00BF044800681021084302490860E8
:1007B00000BF08BD001002400000014000BFC2069B
:1007C000D20E01219140024A116000BF7047000023
:1007D00000E100E070B504460D4616462946204665
:1007E00002F094FA70BD70B505460C46802020409A
:1007F000802807D16006400E1C2670432E462836FE
:10080000811905E01C2060432E46FF360936811908
:10081000002A03D1002088728B8004E001208872B6
:10082000CB80180C0881002070BD70B504460D46C1
:100830001C21694323462833C9180A698721890086
:100840000859294603F068FE70BD70B504460D4690
:100850001C2169432346FF330933C9180A698721DC
:1008600089000859294603F0CEFE70BD70B50246D6
:100870000B4680201840802807D15806400E1C24C3
:10088000604314462834011907E05806400E1C2422
:1008900060431446FF34093401195806400E0870AD
:1008A00080201840C009487000BFFF20E930805CFC
:1008B000012801D1022070BD0124FF20E9308454B9
:1008C00000BF887A00284FD14878002825D00C78BE
:1008D000A4001068005B4024204000280BD00C7856
:1008E000A4001068005B7E4C20407E4C20430D78B5
:1008F000AD00146860530D78AD001468645B784DEA
:1009000030352C4020460124E403044380252C4349
:100910000E78B6001568AC53D9E00C78A4001068C6
:10092000005B0124A403204000280BD00C78A40015
:100930001068005B6A4C20406B4C20430D78AD0082
:10094000146860530D78AD001468645B664DF13D2A
:100950002C4020460124E403044380252C430E78D8
:10096000B6001568AC53B2E04878002857D10C782F
:10097000A4001068005B0124A403204000280BD0D1
:100980000C78A4001068005B554C2040564C204366
:100990000D78AD00146860530C78A4001068005BFB
:1009A0004024204000280BD00C78A4001068005B85
:1009B0004B4C20404B4C20430D78AD0014686053E5
:1009C0000C78A4001068005B454C2040454C204347
:1009D0000D78AD00146860530D78AD001468645B49
:1009E000414DF13D2C4020460124E4030443802581
:1009F0002C430E78B6001568AC530D78AD00146822
:100A0000645B374D30352C4020460124E403044319
:100A100080252C430E78B6001568AC5357E00C784F
:100A2000A4001068005B0124A403204000280BD020
:100A30000C78A4001068005B294C20402A4C20430D
:100A40000D78AD00146860530C78A4001068005B4A
:100A50004024204000280BD00C78A4001068005BD4
:100A60001F4C20401F4C20430D78AD00146860538C
:100A70000C78A4001068005B194C20401A4C2043ED
:100A80000D78AD00146860530D78AD001468645B98
:100A9000134D30352C4020460124E40304438025C7
:100AA0002C430E78B6001568AC530D78AD00146871
:100AB000645B0D4DF13D2C4020460124E4030443CA
:100AC00080252C430E78B6001568AC5300BF00BFDC
:100AD0000024FF20E930845400BF0020EBE6000032
:100AE0008F8F0000C080000080C0000070B50246FB
:100AF0000B4680201840802807D15806400E1C2441
:100B0000604314462834011905E01C20584314465C
:100B1000FF3409340119002088705806400E08700F
:100B200080201840C009487000BFFF20E930805C79
:100B3000012801D1022070BD0124FF20E930845436
:100B400000BF4878002828D00C78A4001068005B0B
:100B50004024204000280BD00C78A4001068005BD3
:100B6000274C2040274C20430D78AD00146860537B
:100B70000D78AD001468645B214D30352C40204663
:100B80001024604020246040A402044380252C43AC
:100B90000E78B6001568AC532AE00C78A4001068F3
:100BA000005B0124A403204000280BD00C78A40093
:100BB0001068005B124C2040134C20430D78AD00B0
:100BC000146860530D78AD001468645B0E4DF13D00
:100BD0002C40204601242403604064006040A400AF
:100BE000044380252C430E78B6001568AC5300BF33
:100BF00000BF0024FF20E930845400BF00209AE7A2
:100C00008F8F0000C080000080C00000FFB581B061
:100C100004460D460020009080202840802807D1FF
:100C20006806400E1C23584323462833C11807E0AA
:100C30006806400E1C2358432346FF330933C1186E
:100C40006806400E087080202840C0094870CA60BD
:100C50000498C87000BFFF20E930005D012802D170
:100C6000022005B0F0BD0123FF20E930035500BF8D
:100C7000C878002806D001282BD0022810D00328DD
:100C800035D118E00B789B002068C05AE74B18401C
:100C9000FF30FF3002300E78B6002368985327E00B
:100CA0000B789B002068C05AE04B18400E78B600C5
:100CB000236898531CE00B789B002068C05ADB4BDC
:100CC000184003235B02C0180E78B60023689853BF
:100CD0000EE00B789B002068C05AD44B18400123CB
:100CE0009B02C0180E78B6002368985300E000BF3E
:100CF00000BF0B789B002068C05ACD4B1840CD4BED
:100D000018430B7818430E78B60023689853887AF6
:100D100000287DD14878002835D0888840104300CD
:100D200020684030008A0E78F60080190127BF0243
:100D30002668F61983530B789B002068C05A40231D
:100D4000184000280CD00B789B002068C05AB84B84
:100D50001840B84B403318430E78B60023689853B8
:100D60000E78B60023689B5BB14E30363340184690
:100D7000202358409B020343802633430F78BF0053
:100D80002668F35349E188884010430020684030CA
:100D9000008A0E78F6008019001D0127BF02266820
:100DA000F619835320684030008A0E78F6008019C7
:100DB000801D2668F6198319CE683E2E10D9CE689C
:100DC000F602300C0E7BF606F60E002E01D1461E02
:100DD000B0B28606360C0127FF033E431E800CE0AE
:100DE000CE68F603300C0E7BF607F60F002E01D00E
:100DF000461CB0B28606360C1E800B789B0020681D
:100E0000C05A01239B03184000280DD00B7800E046
:100E100020E09B002068C05A854B1840864B184341
:100E20000E78B600236898530E78B60023689B5B53
:100E3000814EF13E3340184601231B0358405B00AE
:100E400058409B000343802633430F78BF00266839
:100E5000F353E2E00B789B002068C05AFF23013374
:100E60001843734B1840734B18430E78B600236831
:100E70009853C8884010430020684030008A0E789C
:100E8000F60080190127BF022668F61983530889E6
:100E90004010430020684030008A0E78F600801928
:100EA000001D2668F6198353487800285CD10B781A
:100EB0009B002068C05A3B01184000280BD00B78DB
:100EC0009B002068C05A5A4B18405B4B18430E7861
:100ED000B600236898530B789B002068C05A4023C3
:100EE000184000280CD00B789B002068C05A504B4B
:100EF0001840504B403318430E78B600236898537F
:100F00000B789B002068C05A494B1840494B40332E
:100F100018430E78B600236898530E78B6002368FD
:100F20009B5B454EF13E3340184601231B0358405E
:100F30005B0058409B000343802633430F78BF007B
:100F40002668F3530E78B60023689B5B384E303624
:100F5000334018460123DB030343802633430F78D5
:100F6000BF002668F35358E00B789B002068C05AF6
:100F700001239B03184000280BD00B789B002068AE
:100F8000C05A2B4B18402C4B18430E78B6002368E0
:100F900098530B789B002068C05A402318400028C3
:100FA0000CD00B789B002068C05A214B1840214B75
:100FB000403318430E78B600236898530B789B0093
:100FC0002068C05A1A4B18401B4B18430E78B600C5
:100FD000236898530E78B60023689B5B144E303616
:100FE000334018460123DB030343802633430F7845
:100FF000BF002668F3530E78B60023689B5B0E4E45
:10100000F13E334018460123DB030343802633437C
:101010000F78BF002668F35300BF00BF0023FF20F6
:10102000E930035500BF00981BE600008F890000DF
:101030008F8F00008080000080C00000FFB5044654
:101040000D466806400E1C2250432246FF320932EC
:101050008118029808614B61002088614870680619
:10106000400E0870CA684869904204D9CB68486944
:10107000C01A486102E04B6900204861887A002864
:1010800028D120684030008A0E78F6008019801D33
:101090000127BF022668F61982193E2B0ED9DE02FF
:1010A000300CDE06F60E002E01D1461EB0B28606CA
:1010B000360C0127FF033E4316800AE0DE03300CA6
:1010C000DE07F60F002E01D0461CB0B28606360CA5
:1010D000168075E04878002828D120684030008AC2
:1010E0000E78F6008019801C0127BF022668F619C9
:1010F00082193E2B0ED9DE02300CDE06F60E002ED3
:1011000001D1461EB0B28606360C0127FF033E43CE
:1011100016800AE0DE03300CDE07F60F002E01D049
:10112000461CB0B28606360C16800EE048780128C0
:101130000BD120684030008A0E78F6008019801CA0
:101140000127BF022668F61983534878002828D162
:1011500020684030008A0E78F6008019801D012733
:10116000BF022668F61982193E2B0ED9DE02300C1A
:10117000DE06F60E002E01D1461EB0B28606360CF3
:101180000127FF033E4316800AE0DE03300CDE0732
:10119000F60F002E01D0461CB0B28606360C168023
:1011A0000EE0487801280BD120684030008A0E7884
:1011B000F6008019801D0127BF022668F6198353A7
:1011C0000E78B6002268925B094E3240104601222A
:1011D0001203504052005040920002438026324396
:1011E0000F78BF002668F253002004B0F0BD000065
:1011F0008FBF000070B502460B4600BFFF20E930EC
:10120000805C012801D1022070BD0124FF20E9305B
:10121000845400BF80201840802807D15806400E13
:101220001C24604314462834011905E01C2058434F
:101230001446FF3409340119012088705806400E05
:10124000087080201840C00948700878002814D120
:101250000D78AD001468645B204D2C4020460124BD
:101260002403604010246040E402044380252C43A2
:101270000E78B6001568AC5328E04878002811D0E5
:101280000D78AD001468645B154D2C402046102489
:101290006040E402044380252C430E78B6001568B4
:1012A000AC5313E00D78AD001468645B0B4D303D1A
:1012B0002C402046012424036040E40004438025A0
:1012C0002C430E78B6001568AC5300BF00BF002455
:1012D000FF20E930845400BF002095E7BFBF000025
:1012E000BF8F0000FFB582B005460F461E460020A6
:1012F00001907806400E1C214843294628314418A5
:101300000498206166610020A06101206070780669
:10131000400E2070E1686069884204D9E66860691F
:10132000801B606102E0666900206061A07A00288D
:1013300013D1B3B2A28821692868009001F06AFF36
:1013400028684030008A2278D2008018801C01234F
:101350009B022A68D2188652A7E021788900286863
:10136000405A4021084040283CD16078002827D1CD
:1013700028684030008A2278D2008018801D0B0136
:101380002A68D21881183E2E0ED9F202100CF206ED
:10139000D20E002A01D1421E90B28206120C012305
:1013A000DB031A430A800AE0F203100CF207D20FA3
:1013B000002A01D0421C90B28206120C0A800EE074
:1013C000607801280BD128684030008A2278D2004A
:1013D0008018801D01239B022A68D218865220891A
:1013E00001903CE06078002828D128684030008ACD
:1013F0002278D2008018801C01239B022A68D21810
:1014000081183E2E0ED9F202100CF206D20E002ADE
:1014100001D1421E90B28206120C0123DB031A4353
:101420000A800AE0F203100CF207D20F002A01D062
:10143000421C90B28206120C0A800EE060780128ED
:101440000BD128684030008A2278D2008018801C96
:1014500001239B022A68D2188652E0880190B3B219
:10146000216928680090019A01F0D4FE6078002874
:101470000CD1217889002868405A1749084017493B
:10148000084322789200296888520EE0607801288B
:101490000BD1217889002868405A0F49084010492B
:1014A000084322789200296888522278920029689D
:1014B000895A094A303211400846102148402021FB
:1014C0004840890201438022114323789B002A6807
:1014D000D152002006B0F0BD8F8F0000C080000008
:1014E00080C0000070B50446002520684030808828
:1014F0000121C9030840884202D1204601F042FC84
:1015000020684030808801218902084088420ED13D
:101510002068403080884E490840216840318880EA
:10152000204600F03DF90021204600F06BF92068CC
:1015300040308088012189030840884207D1206813
:1015400040308088434908402168403188802068C5
:1015500040308088012149030840884207D1206833
:10156000403080883C4908402168403188802068AC
:1015700040308088012109030840884217D1206843
:101580004030008835490840216840310880BD2539
:101590002D02206840300580204600F015F92068B3
:1015A000403080882E49084021684031888020687A
:1015B000403080880121C9020840884223D1206838
:1015C0004030808827490840216840318880206861
:1015D0004030008808210843216840310880206895
:1015E0004030008804210843216840310880206889
:1015F00040308088012109030840000B002802D1F7
:10160000204600F035F920684030808801214902E9
:10161000084088420AD1206840308088124908403A
:10162000216840318880204600F0E4F8206840308E
:101630008088FF2101310840884208D1206840306D
:1016400080880649FC39084021684031888070BD97
:10165000FFFB0000FFBF0000FFDF0000FBFF0000FA
:10166000FFEF0000FFF70000FFFD000070B504462B
:1016700000250026002C01D1012070BDFF20EA309A
:10168000005D002806D10021FF20E93001552046E9
:1016900000F062F80321FF20EA30015500251BE02D
:1016A00001221C20684321462831401842701C202A
:1016B00068430D5400221C2068434018C2701C204F
:1016C00068434018C2601C206843401802611C2017
:1016D0006843401842616D1C6068A842E0D800254C
:1016E0001BE000221C2068432146FF3109314018CD
:1016F00042701C2068430D541C2068434018C2707F
:101700001C2068434018C2601C20684340180261D6
:101710001C206843401842616D1C6068A842E0D8F4
:101720000121206840300180002120684030018084
:10173000206840308180206840300182BF26360218
:10174000206840300680242001550121FF20EA3026
:101750000155002091E7000038B504460E49206885
:10176000884217D100BF0D48C0690121C90508434F
:101770000A49C8610846C0690121C90508400090AE
:1017800000BF00BF002211461F20FFF723F81F20D3
:10179000FFF714F838BD0000005C00400010024064
:1017A00070B504460125A068022801D0FEF75DFD52
:1017B000872189000859294603F03FF887218900CD
:1017C000085902F0F7FF70BD10B50446A069002863
:1017D00007D007480069062188430549086101F0E0
:1017E000E7FE87218900085903F00AF810BD0000C0
:1017F00000ED00E010B5044687218900085903F088
:1018000007F810BD024600BFFF20E930805C0128C8
:1018100001D1022070470123FF20E930835400BF2B
:10182000002904D1802310684030838101E0242006
:10183000815400BF0023FF20E930835400BF002003
:10184000E8E710B504468721890008592146FF3191
:10185000ED3103F008F810BD014608684030008BF8
:101860000122D20310430A684032108300207047DF
:1018700010B5044687218900085903F058F8A0697B
:10188000002805D003480069062108430149086182
:1018900010BD000000ED00E0F8B50446002600256C
:1018A000012109042068084088427AD1002759485C
:1018B000C0690903084000280DD100BF5548C06920
:1018C00008435449C8610846C069090408400090AB
:1018D00000BF00BF012750480068FF2101310840C8
:1018E000002816D14C48006808434B490860FEF7B1
:1018F00009FF064606E0FEF705FF801B642801D9B4
:101900000320F8BD44480068FF2101310840002849
:10191000F1D04048006A0321090208400546002D25
:101920002DD060680840A84229D03A48006A884310
:1019300005463848006A0121090408433549086210
:101940000846006A012109048843324908620846B2
:101950000562E807C00F002811D0FEF7D3FE064647
:1019600007E0FEF7CFFE801B2C49884201D90320F7
:10197000C7E72848006A022108400028F1D025481E
:10198000006A03210902884361680843214908620B
:10199000012F05D10846C069090488431D49C86163
:1019A00000BF2078C007C00F002807D01948006B7F
:1019B00080088000A1680843164908632021206838
:1019C0000840202807D11348006B10218843E168A4
:1019D00008431049086301214904206808408842EF
:1019E00007D10C48006B802188436169084309498D
:1019F00008630121890220680840884207D1054810
:101A0000006B402188432169084302490863002094
:101A100077E70000001002400070004088130000CB
:101A200070B504460D4600266C480068C007C00F1C
:101A3000A8420ED269480068400840002843674920
:101A4000086008460068C007C00FA84201D0012006
:101A500070BD022120680840022807D16048406814
:101A6000F0218843A16808435D4948602078C00799
:101A7000C00F00287ED06068012808D1584800684F
:101A8000012149040840002821D10120E0E76068D5
:101A9000022808D152480068012149060840002860
:101AA00015D10120D4E76068032808D14C48406B69
:101AB000012109040840002809D10120C8E748484D
:101AC000006802210840002801D10120C0E74448F5
:101AD0004068800880006168084341494860FEF71B
:101AE00011FE0646606801280FD107E0FEF70AFEE6
:101AF000801B3C49884201D90320A9E73848406847
:101B00000C2108400428F1D134E0606802280FD18C
:101B100007E0FEF7F7FD801B3249884201D9032018
:101B200096E72F4840680C2108400828F1D121E0B1
:101B3000606803280FD107E0FEF7E4FD801B294908
:101B4000884201D9032083E7254840680C210840DA
:101B50000C28F1D10EE007E0FEF7D4FD801B2149EF
:101B6000884201D9032073E71D4840680C210840D2
:101B70000028F1D119480068C007C00FA8420ED94B
:101B80001648006840084000284314490860084689
:101B90000068C007C00FA84201D0012058E7042107
:101BA00020680840042808D10D4840680721090230
:101BB0008843E16808430A49486000F031F8084961
:101BC0004968F02211400909074A515CC840074999
:101BD00008600020FEF7B4FD002039E70020024035
:101BE0000010024088130000D04E0008A40000201E
:101BF0000148006870470000A400002000B5FFF70E
:101C0000F7FF05494968072212021140090A034AF1
:101C1000515CC84000BD000000100240E04E0008CA
:101C2000F0B589B02FA001460EC9C06805AC0EC43E
:101C3000089030A001460EC9C06801AC0EC40490E3
:101C40000024002600270025002000902D4844682D
:101C50000C20204000283DD0042804D0082805D0BE
:101C60000C2836D132E02848009036E00F2080045E
:101C70002040800C05A90D5C2248C06A0007000FB7
:101C800001A90E5C0320C003204001210904884201
:101C900006D131461C48FEF749FA6843074613E06F
:101CA0000320C00320400321C903884206D13146E6
:101CB0001648FEF73BFA6843074605E031461248EE
:101CC000FEF734FA68430746009706E00F48009095
:101CD00003E000BF0C48009000BF00BF009809B0AF
:101CE000F0BD000002030405060708090A0B0C0DED
:101CF0000E0F10100102030405060708090A0B0C59
:101D00000D0E0F100010024000127A00006CDC0271
:101D1000F8B5044600252078C007C00F002872D00F
:101D2000FA4840680C21084004280CD0F748406865
:101D30000840082813D1F5484068490308400121AC
:101D4000090488420BD1F148006801214904084088
:101D500000286BD06068002868D10120F8BD00BF62
:101D60006068012807D1E948006801210904084397
:101D7000E649086031E0606800280ED1E348006859
:101D8000012109048843E1490860084600680121EF
:101D900089048843DD4908601FE0606805280ED18A
:101DA000DA480068012189040843D84908600846D8
:101DB0000068012109040843D44908600DE0D348B4
:101DC0000068012109048843D0490860084600687A
:101DD000012189048843CD49086000BF606800285C
:101DE00012D0FEF78FFC054606E0FEF78BFC401B89
:101DF000642801D90320B1E7C448006801214904DF
:101E000008400028F1D011E0FEF77CFC054606E012
:101E1000FEF778FC401B642801D903209EE7BB48ED
:101E200000680121490408400028F1D102212068FE
:101E30000840022862D1B54840680C2108400028BB
:101E40000CD0B2484068084008281CD1AF48406810
:101E5000490308400121C903884214D1AB480068F6
:101E600002210840002804D0E068012801D00120A8
:101E700074E7A6480068F82188432169C90008432F
:101E8000A24908603AE0E068002820D09F48006836
:101E9000012108439D490860FEF734FC054606E031
:101EA000FEF730FC401B022801D9032056E7974873
:101EB0000068022108400028F2D094480068F82108
:101EC00088432169C90008439049086016E08F489B
:101ED0000068400840008D490860FEF713FC054685
:101EE00006E0FEF70FFC401B022801D9032035E76E
:101EF00086480068022108400028F2D108212068A5
:101F00000840082831D1E069002817D07F48406A8E
:101F1000012108437D494862FEF7F4FB054606E0CF
:101F2000FEF7F0FB401B022801D9032016E7774893
:101F3000406A022108400028F2D016E07348406A47
:101F40004008400071494862FEF7DCFB054606E0A8
:101F5000FEF7D8FB401B022801D90320FEE66B48A0
:101F6000406A022108400028F2D10421206808407C
:101F7000042871D100266548C069890608400028F8
:101F80000DD100BF6148C06908436049C861084677
:101F9000C06909040840009000BF00BF01265C48EA
:101FA0000068FF2101310840002816D15848006818
:101FB000084357490860FEF7A5FB054606E0FEF713
:101FC000A1FB401B642801D90320C7E650480068E4
:101FD000FF21013108400028F1D000BFA06801288E
:101FE00006D14A48006A01210843484908622BE0AB
:101FF000A06800280CD14548006A400840004349C9
:1020000008620846006A04218843404908621BE0D0
:10201000A06805280CD13D48006A042108433B49CB
:1020200008620846006A01210843384908620BE04B
:102030003648006A40084000344908620846006A91
:10204000042188433149086200BFA068002813D0EA
:10205000FEF758FB054608E029E0FEF753FB401B5E
:102060002C49884201D9032078E62848006A0221D9
:1020700008400028F1D011E0FEF744FB054607E0D8
:10208000FEF740FB401B2349884201D9032065E647
:102090001E48006A022108400028F1D1012E05D116
:1020A0001A48C069310788431849C86100BF102128
:1020B0002068084010285FD1606901282CD113489E
:1020C000406B04210843114948630846406B0121D5
:1020D00008430E494863FEF715FB054606E0FEF788
:1020E00011FB401B022801D9032037E60748406B4B
:1020F000022108400028F2D00448406BF8218843B0
:10210000A169C90008430149486335E00010024055
:1021100000700040881300006069401D00280FD146
:102120007A48406B04218843784948630846406BED
:10213000F8218843A169C9000843744948631BE03A
:102140007248406B04210843704948630846406B5D
:10215000400840004863FEF7D5FA054606E0FEF762
:10216000D1FA401B022801D90320F7E56748406BEC
:10217000022108400028F2D12021206808402028B0
:1021800052D1624840680C2108400C280AD05F48B0
:1021900040680840082811D15C484068490308405D
:1021A00088420BD15948406B01210904084000289E
:1021B0003AD0206A012837D00120CFE5206A0028D4
:1021C00019D05248406B0121090408434F49486324
:1021D000FEF798FA054606E0FEF794FA401B02283F
:1021E00001D90320BAE54948406B012109040840A0
:1021F0000028F1D018E04548406B012109048843CC
:1022000042494863FEF77EFA054606E0FEF77AFA91
:10221000401B022801D90320A0E53C48406B012166
:10222000090408400028F1D1606A00286CD03748C2
:1022300040680C210840082864D0606A022847D111
:102240003248006801210906884330490860FEF7DA
:1022500059FA054606E0FEF755FA401B022801D957
:1022600003207BE529480068012149060840002831
:10227000F1D100BF2548C06A00090001216B084365
:102280002249C862A16AE06A0843204949687B2262
:10229000D203914308431D49486000BF08460068C7
:1022A00001210906084319490860FEF72BFA054683
:1022B00006E0FEF727FA401B022801D903204DE56E
:1022C000124800680121490608400028F1D01BE0AF
:1022D0000E4800680121090688430C490860FEF792
:1022E00011FA054606E0FEF70DFA401B022801D957
:1022F000032033E50548006801214906084000280D
:10230000F1D101E0012029E5002027E5001002407D
:1023100070B504462546681E0949884201D9012046
:102320000CE0681E074948610321081F00F0EEFC1D
:1023300000200449886107200861002070BD00006A
:10234000FFFFFF0000E000E07047704710B5044653
:10235000002C01D1012010BD3D20005D002805D1D9
:1023600000213C200155204600F00CF802213D20C0
:102370000155211D206801F0A3F901213D200155DF
:102380000020E8E738B504461B492068884216D18A
:1023900000BF1A48C069891508431849C861084632
:1023A000C06989150840009000BF00BF0022114697
:1023B0001320FEF70FFA1320FEF700FA1BE0104976
:1023C0002068884217D100BF0C4880690121490468
:1023D00008430A4988610846806901214904084088
:1023E000009000BF00BF002211461520FEF7F2F951
:1023F0001520FEF7E3F938BD002000400010024030
:102400000044014001460868C068012210430A6880
:10241000D06008680068012210430A68106000203C
:102420007047704710B504462068006902210840D3
:10243000400800281CD02068C068084040080028D8
:1024400016D0481F21680861012020772068806924
:102450008007800F002803D02046FFF7E2FF05E049
:10246000204600F0C3F8204600F0C1F80020207795
:102470002068006904210840800800281DD02068D9
:10248000C06808408008002817D0C8432168086148
:102490000220207720688069032109020840002873
:1024A00003D02046FFF7BDFF05E0204600F09EF870
:1024B000204600F09CF80020207720680069082161
:1024C0000840C00800281CD02068C0680840C00828
:1024D000002816D0C84321680861042020772068AE
:1024E000C0698007800F002803D02046FFF799FFBE
:1024F00005E0204600F07AF8204600F078F8002049
:1025000020772068006910210840000900281DD0AC
:102510002068C06808400009002817D0C843216817
:102520000861082020772068C0690321090208405B
:10253000002803D02046FFF774FF05E0204600F096
:1025400055F8204600F053F80020207720680069F5
:10255000C007C00F01214840484000280CD0206827
:10256000C068084048404840002805D0C81E21687F
:102570000861204600F03CF820680069802108408E
:10258000C00900280BD02068C0680840C009002896
:1025900005D0C843216808612046FFF7D5FE2068B2
:1025A000006940210840800900280BD02068C068DD
:1025B00008408009002805D0C843216808612046EA
:1025C00000F030F820680069202108404009002808
:1025D0000BD02068C06808404009002805D0C843D7
:1025E000216808612046FFF7B0FE10BD70477047B4
:1025F00010B5044607492068884204D140220649A4
:10260000064801F041FC06492068884201D100F0EB
:1026100027FF10BD00200040A00200202005002060
:10262000004401407047704770470000F8B5044609
:102630002068C569206806682807000F0090009888
:1026400000280BD120202840002807D0202030402F
:10265000002803D0204601F0CAF9F8BD2068876839
:10266000009800287ED0F807C00F002804D1FF2072
:10267000213030400028F5D0E807C00F00280BD0EB
:10268000FF2001303040002806D001202168086278
:10269000E06E01210843E0660220284000280AD0AD
:1026A000F807C00F002806D0022021680862E06EFB
:1026B00004210843E0660420284000280AD0F807D7
:1026C000C00F002806D0042021680862E06E0221B5
:1026D0000843E0660820284000280ED02020304023
:1026E000002803D1F807C00F002806D00820216871
:1026F0000862E06E08210843E066E06E002841D0E1
:1027000020202840002806D020203040002802D079
:10271000204601F06CF9E06E08210840002805D140
:102720002068806840210840002826D0204601F01B
:1027300033F92068806840210840002819D02068BB
:102740008068884321688860606E00280DD0264824
:10275000616E4863606EFDF7A1FD002812D0606EC7
:10276000416B00E00FE088470CE02046FFF75CFF7C
:1027700008E02046FFF758FF04E02046FFF754FF2B
:102780000020E06669E7012000052840002811D0FC
:1027900001208005384000280CD001200005216868
:1027A00008622021692001556A2001552046FFF763
:1027B0003AFF52E780202840002807D08020304090
:1027C000002803D0204601F04BFA46E7402028407D
:1027D000002807D040203040002803D0204601F0D8
:1027E000ECF83AE700BF38E7D138000810B50446E6
:1027F000002C01D1012010BDA069002800D000E00C
:1028000000BF6920005D002805D100216820015526
:10281000204600F02DF82421692001552068006829
:102820004008400021680860204601F027F901288F
:1028300000D1E0E7606A002802D0204600F090FF57
:10284000206840680921C9028843216848602068DF
:1028500080682A21884321688860206800680121F7
:10286000084321680860204600F0F2FFC3E700003B
:1028700010B586B00446142101A8FDF774FC2B495D
:102880002068884250D100BF2948C069012149040D
:1028900008432749C8610846C06901214904084026
:1028A000009000BF00BF00BF214840690843204995
:1028B000486108464069012149040840009000BF72
:1028C00000BF0C2001900220029000200390032002
:1028D00004900120059001A90920C006FDF712FE11
:1028E00014481549086000204860002112488160A2
:1028F0008021C160002101614161202181610021AD
:10290000C161FDF76FFD002801D0FDF7AEFC00BFEF
:1029100009486066446200BF002211461C20FDF792
:1029200059FF1C20FDF74AFF06B010BD00440040CF
:1029300000100240580002401C02002070B50446FE
:102940000D4616466A20005D202854D1002D01D086
:10295000002E01D1012070BD01210903A068884229
:1029600008D12069002805D1E807C00F002801D050
:102970000120F0E700BF6820005D012801D102209E
:10298000E9E701216820015500BF6565582006531D
:102990000020E06622216A2001551848616E886295
:1029A0001748616EC8621748616E08630020616E47
:1029B00048632368194624313346626D606EFDF723
:1029C00043FD00BF00216820015500BF206800685A
:1029D000FF210131084321680860206880680121D7
:1029E0000843216888602068806840210843216886
:1029F00088600020AFE70220ADE700003F39000803
:102A00008B390008E938000870477047FEB5044666
:102A10000D4616461F46002001906920005D2028C3
:102A20006AD1002D01D0002E01D10120FEBD01216F
:102A30000903A068884208D12069002805D1E80769
:102A4000C00F002801D00120F0E700BF6820005D22
:102A5000012801D10220E9E701216820015500BFCA
:102A60000020E066212169200155FDF74BFE019011
:102A7000502006535220065325E05220005B401E92
:102A800081B2522001530097002280212046019BF1
:102A900001F01FF9002801D00320C7E70121090335
:102AA000A06888420BD12069002808D10295029DB8
:102AB0002888C005C00D21680885AD1C03E0287872
:102AC0006D1C216808855220005B0028D5DC00972A
:102AD000002240212046019B01F0FBF8002801D094
:102AE0000320A3E720216920015500BF00216820B1
:102AF000015500BF002099E7022097E7704700BF0B
:102B0000FEE730B50B46002100BF12E0040F0A2C8F
:102B100004D2040F30344D005C5503E0040F373409
:102B20004D005C55000100254C00641C1D554C1CDB
:102B3000E1B29142EADB30BD08B500BF0A48406906
:102B4000012108430849486108464069C007C00F91
:102B5000009000BF00BF002211460B20FDF73AFE97
:102B60000B20FDF72BFE08BD0010024000B587B01A
:102B7000142102A8FDF7F7FA00BF1E4840690121A1
:102B8000890508431B4948610846406901218905B8
:102B90000840019000BF00BF00BF164840694911BE
:102BA0000843144948610846406901214904084026
:102BB000019000BF00BF002270210920C006FDF770
:102BC0009AFD0120029000200390049002A90920A0
:102BD000C006FDF797FC70200290012003900020B2
:102BE0000490059002A90920C006FDF78BFC07B0F0
:102BF00000BD00000010024010B50A480A490860F4
:102C00002F2048600021084881600849C1600021E8
:102C1000016180218161FFF799FB002801D0FDF758
:102C200024FB10BD002000402C0100200F270000D5
:102C300010B50B480B4908600B4848600021094853
:102C400081600A49C1600021016141618021816187
:102C5000FFF77CFB002801D0FDF707FB10BD00004B
:102C6000004401406C010020BF1200001F0300005F
:102C700010B50E480E490860E1204002486000216E
:102C80000B488160C16001610C21416100218161BB
:102C9000C16101620020064948620846FFF7A6FDAF
:102CA000002801D0FDF7E1FA10BD0000004400400B
:102CB000AC01002010B500220F49104801F0E8FBDC
:102CC000002801D0FDF7D1FA0D490C4801F065FE4E
:102CD000002801D0FDF7C9FA0A49084801F0CBF8ED
:102CE000002801D0FDF7C1FA044801F032FF0028A6
:102CF00001D0FDF7BAFA10BD1C000020200500200D
:102D0000AC000020900000207047000010B50028A3
:102D100019DA1A4A03071B0F083B9B089B00D2587D
:102D20008307DC0EFF23A3409A438B071B0E840707
:102D3000E40EA3401A43114B0407240F083CA408D7
:102D4000A4001A5118E00E4A03231B02D21883086C
:102D50009B00D2588307DC0EFF23A3409A438B07C6
:102D60001B0E8407E40EA3401A43054B03242402E0
:102D70001B198408A4001A5110BD00001CED00E0CE
:102D800000E100E0FEB5054600270020019013E2B7
:102D9000684600890607360F002E7DD168460089F7
:102DA00010210840002830D128680088FC490840DC
:102DB000296808802C46283428684030008A217809
:102DC000C9004018801C0122920229688918405AC3
:102DD0008005800DA061A169206940182061002153
:102DE0002846FDF722FD2420405D0028CFD06069F1
:102DF0000028CCD12420405D80210843296840313F
:102E00008881002124204155D6E12C46FF34093425
:102E1000286801880191684680880121C90208401C
:102E2000002823D028684030008A2178C900401843
:102E3000801D0122920229688918405A8005800D60
:102E4000A061218B8BB2A2882146E431286800F072
:102E5000BEF9286800884004400CD1498031084000
:102E6000296808802846FEF7ECFCA5E168468088C2
:102E70000121C9030840002889D02868008840043F
:102E8000400CC749803108402968088028684030D4
:102E9000008A2178C90000E057E04018801D012217
:102EA000920229688918405A8005800DA061A069A6
:102EB00000280BD0218B8BB2A28821690091286851
:102EC00000F085F9A1692069401820610021284699
:102ED000FDF7BBFC28684030008A801D01239B025F
:102EE0002A68D2188118E2683E2A10D9E268D20214
:102EF000100C227BD206D20E002A01D1421E90B2C3
:102F00008206120C0123DB031A430A800CE0E268FC
:102F1000D203100C227BD207D20F002A01D0421C10
:102F200090B28206120C0A80296809889D4A1140D5
:102F300008460121090348404900484089000143EF
:102F4000802211432A68118036E1B1002868415A75
:102F50000191684680880121C903084000287CD07F
:102F6000B1002868405A4004400C8D498031084027
:102F7000B200296888521C2070432946FF3109316C
:102F80004418A07A002816D128684030008A217899
:102F9000C9004018801D0122920229688918405AF0
:102FA0008705BF0D002F49D0A28821693B462868BC
:102FB00000F00DF942E0217889002868405A01218B
:102FC00089030840884216D128684030008A217859
:102FD000C9004018801C0122920229688918405AB1
:102FE0008705BF0D002F1CD0E28821693B46286869
:102FF00000F0EDF815E028684030008A2178C9001B
:103000004018801D0122920229688918405A8705BC
:10301000BF0D002F05D0228921693B46286800F0AA
:10302000D6F8217889002868405A5D4980310840E7
:103030005D4908432278920029688852A069C01926
:10304000A0612069C01920616069002802D0E06891
:10305000B84206D92178284600E008E0FDF7F5FBE4
:1030600005E02178284663692269FDF7E7FF684695
:1030700080888021084000287ED01C20704329468B
:1030800028314418B1002868405A45490840B20028
:1030900029688852A07A00281AD128684030008A0E
:1030A0002178C9004018801C0122920229688918E1
:1030B000405A8005800DA061A069002853D0208B64
:1030C00083B2A28821692868009000F0A3F84AE042
:1030D000217889002868405A4021084040281AD1A8
:1030E00028684030008A2178C9004018801C0122DD
:1030F000920229688918405A8005800DA061A06954
:10310000002822D0208B83B2E288216928680090B1
:1031100000F080F819E028684030008A2178C90062
:103120004018801D0122920229688918405A8005A2
:10313000800DA061A069002807D0208B83B222896E
:1031400021692868009000F065F8217889002868D6
:10315000405A1349803108401249F131084322781E
:1031600092002968885228684030008A2178C90076
:103170004018801C012200E01EE092022968891894
:10318000405A8005800DA061A16920694018206126
:10319000606900280AD121782846FDF746FB0BE03C
:1031A0000F8F00008FBF0000C080000021782846EC
:1031B00063692269FEF796F828684030808802909B
:1031C0000121C9030840002800D0E1E5FEBDFFB59C
:1031D00081B004465D080095039D2D190127BF02AB
:1031E000E819009E07E00288801C0A70491C150A35
:1031F0000D70491C761E002EF5D11D46DF0F7F197C
:103200007F107F00DF1B03D00288801C0A70491CDE
:1032100005B0F0BDFFB581B0049E761C760800961F
:10322000039E36180127BF02F419009A08E00B78B4
:10323000491C0E7835021D432580A41C491C521ED2
:10324000002AF4D105B0F0BD704710B5002240212E
:103250000920C006FDF74FFA002220210920C006F0
:10326000FDF749FA012210210920C006FDF743FAB3
:1032700010BD000070B504460D4600BF01210920B5
:10328000C006FDF72FFA0128F8D1AAB27D23DB0092
:1032900021460248FFF7BAFB70BD0000AC010020D8
:1032A00010B590B0002100225CE04F484F4B1B78D6
:1032B000C05CFF280FD14E480078012804D10020BF
:1032C000494B4C4C2468185548480078494B1860C5
:1032D0000120474B18704448444B1B78C05CFE28C3
:1032E00035D10020404B414C247818554048007897
:1032F000012800D036E000203B4B3E4C2468185596
:103300003B4B1870394800783A4B1B68984207DAF3
:1033100036480078FF300130364B1B68C11A04E094
:1033200032480078334B1B68C11A402900DB19E092
:10333000002009E02F4B1B785B1C1B18DBB22A4CCA
:10334000E35C6C462354401C8842F3DB0BE0FF2A0D
:1033500000D108E0501CC2B224480078401C234B26
:10336000187000BFA1E700BF002901D110B010BD47
:1033700068460078FD2800D0F8E7684640780028C5
:1033800004D0012816D002282AD11EE001201A4BB1
:10339000187068468078194B18706846C078587065
:1033A00068460079987068464079D8706846807998
:1033B000187115E00120124B1870684680780F4B89
:1033C00058716846C07898710AE001200D4B18705A
:1033D00068468078094BD8716846C078187200BF7B
:1033E00000BF00BFC2E7000020040020180000203A
:1033F000100000201400002009000020A00200207E
:103400000A0000200B000020704700007FB5054631
:103410000E4614460EA30FCB03936B4607C36846B4
:10342000C6702178017161784171A1788171E1786C
:10343000C1712179017261794172A1798172E17959
:10344000C1724570FD2181700D21FFF713FF7FBD13
:10345000FF0000000000000000000000FE0000006F
:1034600010B53F48007800280CD13E480078401C39
:103470003C490870084600780C2809DB00213A48CE
:10348000417705E00020374908700121364841772F
:103490003648007800280CD135480078401C344963
:1034A0000870084600780C2809DB00212E48817737
:1034B00005E000202E49087001212B4881772D4816
:1034C000007800280CD12C480078401C2A4908704C
:1034D000084600780C2809DB00212348C17705E065
:1034E00000202549087001211F48C1771E48407FF0
:1034F000002803D01C48807F002818D11F4800787E
:10350000401C1E490870084600780C2812DB1CA2DB
:1035100000210846FFF77AFF1CA200210120FFF7D7
:1035200075FF1DA200210220FFF770FF02E00020BE
:10353000124908700C48407F002808D00A48807F54
:10354000002804D0174A01210846FFF75FFF00203A
:1035500003490870054908700649087010BD00004D
:10356000090000200C000020C00200200A000020FA
:103570000D0000200B0000200E0000200F00002096
:103580003830203230202020000000003830203435
:10359000302020200000000038302036302020204D
:1035A000000000006002002010B5FDF7B1F810BD6A
:1035B00010B500F001F810BD00B597B034210AA88D
:1035C000FCF7D1FD00200690079008900990182183
:1035D0006846FCF7C8FD20200A90012012900020C8
:1035E00013900AA8FEF794FB002801D0FCF73DFEDB
:1035F00007200690032007900020089009900121E1
:1036000006A8FEF70DFA002801D0FCF72EFE0120D7
:1036100040040090002005906846FEF73DF9002820
:1036200001D0FCF722FE17B000BD00001948006869
:1036300001210843174908600846406816490840B8
:103640001449486008460068144908401149086058
:10365000084600680121890488430E49086008462D
:1036600040683F21090488430A4948600846C06A07
:1036700000090001C8620846006BFF21D43188436D
:10368000044908630846406B400840004863002036
:1036900088607047001002400CB8FF08FFFFF6FE7C
:1036A00010B50248FEF7BEFE10BD00002C01002040
:1036B00010B50248FEF7B6FE10BD00006C010020F8
:1036C00010B500220268214B984206D001239B07C7
:1036D000984202D01E4B984205D170241346A34352
:1036E0001A464B681A43194B98420FD001239B0787
:1036F00098420BD0164B984208D0164B984205D0F2
:10370000154B984202D0154B984206D1032424024F
:103710001346A3431A46CB681A4380241346A34397
:103720004C6923431A4602608B68C3620B6883624C
:10373000064B984205D0084B984202D0074B98425E
:1037400001D10B6903630123436110BD002C0140CB
:1037500000040040002000400044014000480140B7
:10376000818CC907C90F002908D001684968012266
:1037700052049143826A1143026851600222416AF5
:103780001140002907D001684968D2039143C26AF9
:103790001143026851600422416A1140002907D098
:1037A0000168496812049143026B11430268516039
:1037B0000822416A1140002907D0016849681203B4
:1037C0009143426B1143026851601022416A1140DB
:1037D000002907D00168896812029143826B114366
:1037E000026891602022416A1140002907D00168D7
:1037F000896812029143C26B1143026891604022B2
:10380000416A1140002915D001684968920391432B
:10381000026C11430268516001221205016C914251
:1038200008D101684968032252059143426C114353
:10383000026851608022416A1140002907D0016866
:10384000496812039143826C1143026851607047CA
:1038500038B5044600250020E066FCF753FF054616
:1038600019492068884223D120680068082108404F
:1038700008280BD115482B460022890400902046C9
:1038800000F027FA002801D0032038BD2068006826
:103890000421084004280BD10C482B4600220905BE
:1038A0000090204600F015FA002801D00320ECE734
:1038B0002021692001556A20015500BF00216820A0
:1038C000015500BF0020E0E700380140FFFFFF0185
:1038D00070B505466C6A00215A20015352200153ED
:1038E0002046FEF7A1FE70BD70B505466C6A6920E2
:1038F000005D21280BD120688068802108400028C5
:1039000005D0002152200153204600F066F86A20BD
:10391000005D22280BD120688068402108400028E3
:1039200005D000215A200153204600F035F8E06E02
:1039300010210843E0662046FEF776FE70BD70B5A4
:1039400005466C6A2868006820210840002818D1C4
:1039500000215A20015320680068FF21013188436B
:1039600021680860206880684008400021688860FD
:1039700020688068402188432168886020216A206F
:1039800001552046FFF740F870BD70B50446656AE2
:103990002846FFF73AF870BD01680968FF22213216
:1039A000914302681160016889684908490002680A
:1039B000916020226A210A54704710B5044620689D
:1039C0000068402188432168086020216920015552
:1039D0002046FFF793F8002010BD01680968C02257
:1039E000914302681160202269210A547047F8B59A
:1039F00004465C20075B6A20005D222836D12068DF
:103A0000858C01210903A06888420AD12069002819
:103A100007D1666D284638403080606D801C606537
:103A200005E0F8B22840626D511C616510705A20A3
:103A3000005B401E81B25A200153002914D1206836
:103A40000068FF2121318843216808602068806870
:103A5000400840002168886020216A2001552046E6
:103A6000FEF7D2FF0020F8BD0020FCE72068806947
:103A700008210843216888610220F4E7FEB5044666
:103A80000025102600270020029001902169A068DF
:103A9000084361690843E1690843054620680068F6
:103AA000684908402843216808602068406803216D
:103AB00009038843E168084321684860216AA069D6
:103AC00008430546206880680B2109028843284383
:103AD0002168886000BF5C492068884217D15B4834
:103AE000006B8007800F002806D0012808D002282C
:103AF00008D0032808D101E0002607E0022605E0EF
:103B0000042603E0082601E0102600BF06E0504925
:103B10002068884201D1002600E0102600BF012164
:103B2000C903E069884249D1042E20D004DC002E6C
:103B300007D0022E32D111E0082E25D0102E2DD123
:103B40002DE0FEF75BF840006168490840180090DE
:103B50006168FCF7EBFA80B2029023E061684A08E2
:103B60003C4BD018FCF7E2FA80B202901AE0FEF764
:103B700057F8400061684908401800906168FCF7F8
:103B8000D5FA80B202900DE061684A0801231B0457
:103B9000D018FCF7CBFA80B2029003E000BF0120FE
:103BA000019000BF00BF2C490298084007460298C8
:103BB0000007400F07432068C76040E0042E21D073
:103BC00004DC002E07D0022E34D111E0082E26D0BE
:103BD000102E2FD12FE0FEF711F861684908401828
:103BE00000906168FCF7A2FA80B22168C86025E005
:103BF00061684A08194BD018FCF798FA80B221681E
:103C0000C8601BE0FEF70CF8616849084018009096
:103C10006168FCF78BFA80B22168C8600EE06168C9
:103C20004A080123DB03D018FCF780FA80B2216830
:103C3000C86003E000BF0120019000BF00BF0198F1
:103C4000FEBD0000F369FFEF0038014000100240A4
:103C5000004400400024F400F0FF000000127A004D
:103C600001466920405C212831D15220405A002869
:103C70000DD108680068802398430B6818600868B5
:103C80000068402318430B68186000207047012328
:103C90001B03886898420CD10869002809D1CA6CB6
:103CA0001088C005C00D0B681885C86C801CC864DE
:103CB00005E0CB6C581CC86418780B681885522036
:103CC000405A401E83B2522043520020DEE70220B9
:103CD000DCE7FFB581B004460D4617460A9E24E096
:103CE000701C002821D0002E05D0FCF70BFD049994
:103CF000401AB04219D920680068FF21A1318843D9
:103D00002168086020688068400840002168886059
:103D10002021692001556A20015500BF002168203B
:103D2000015500BF032005B0F0BD2068C0692840E0
:103D3000A84201D1012000E00020B842D0D00020EC
:103D4000F1E7000010B50248FEF770FC10BD00005E
:103D5000AC010020024600234320C00080584030C0
:103D600003740020704770B504460E464320C0001F
:103D700005596978287887239B001B59DA68904792
:103D800040232A460121204600F0FDFC002070BDA2
:103D900070B504460D468121204600F0ABFB0121A1
:103DA000204600F0A7FB4320C000005900280DD09A
:103DB000872189000959886880474321C90008592B
:103DC00000F0E5FF00214320C0000151002070BD3C
:103DD00070B505464320C0004459E06C012808D165
:103DE0006178207887239B005B59DA689047002030
:103DF000E064002070BD00000146292008800148D1
:103E000070470000E800002001460A2008800148B1
:103E10007047000020010020F8B504460F46002638
:103E2000402303228121204600F096FC40230322F8
:103E30000121204600F090FC542000F0A9FF43210E
:103E4000C900085108460059002801D1012610E098
:103E50004320C00005590021502041558721890089
:103E600009594868804740232A460121204600F02E
:103E70008AFC3046F8BD02460220002903D0872381
:103E80009B00995000207047F8B504460D46164631
:103E90004320C0000759FF20FD30005D03280CD1EE
:103EA0005020C05D002808D101215020C155334663
:103EB0002A468121204600F045FD0020F8BD000083
:103EC000F8B506460C460027002000904320C000AD
:103ED0008559207860210840002831D0202866D1FB
:103EE0006078801E030000F073FF0A140923232367
:103EF00023231B100623A07828641FE001222946F3
:103F00004031304600F0D0F818E060880012686454
:103F100014E0012229464431304600F0C5F80DE096
:103F20000120E864A2792946304600F09AF805E0BD
:103F30002146304600F089F80220F8BD00BF36E087
:103F40006078062804D00A2826D00B282ED12AE033
:103F50006088001222280CD1E088222801DD22206E
:103F600000E0E088074687208000805900680090C4
:103F70000CE060880012212808D10E480090E088EB
:103F8000092801DD092000E0E08807463A4630466E
:103F9000009900F089F809E00122294648313046AD
:103FA00000F082F802E0A078A86400BF00BF00BF64
:103FB0000020C2E71401002070B504460D4685209C
:103FC000800000592946426820469047002070BD75
:103FD00070B504460D46FF20FD30005D022802D07A
:103FE000032813D100E000BF688801280DD100210B
:103FF0008120800001518520800000592946826877
:1040000020469047204600F061F804E0294620460B
:1040100000F01BF800BF00BF70BD70B506460C462F
:1040200015462B4622460021304600F0ACFB00200E
:1040300070BD70B506460C4615462B46224600213B
:10404000304600F07FFC002070BD70B504460D4680
:104050008021204600F049FC0021204600F045FC6C
:1040600070BD70B504460E4615460321FF20F5309D
:104070000151FF2009300551001D05512B463246E4
:104080000021204600F07FFB002070BD10B50446E3
:104090000521FF20F530015100231A46194620461C
:1040A00000F071FB002010BD70B504460E461546A9
:1040B0000221FF20F5300151A561E5612B46324612
:1040C0000021204600F03EFC002070BD10B50446E3
:1040D0000421FF20F530015100231A4619462046DD
:1040E00000F030FC002010BD70B505460C46002DD8
:1040F00005D12246054906A000F08CF904E02246CD
:10410000024903A000F086F9004870BDBC090020F8
:10411000437573746F6D2048494420436F6E666920
:104120006700000002461220088001487047000026
:104130003800002070B505460C46002D05D12246FA
:10414000054906A000F066F904E02246024903A0F2
:1041500000F060F9004870BDBC090020437573741D
:104160006F6D2048494420496E74657266616365CD
:10417000000000000246042008800148704700004B
:104180004C00002070B505460C462246024903A0AB
:1041900000F040F9004870BDBC0900205765695324
:1041A000686958756E44610070B505460C46002D6F
:1041B00005D12246054906A000F02CF904E022466C
:1041C000024903A000F026F9004870BDBC09002098
:1041D00056525F52656365697665720070B5054633
:1041E0000C461A202080FCF741F8014870BD000001
:1041F0005000002070B504460D46E888012804D020
:1042000029462046FFF721FF1CE0FF20FD30005D1E
:10421000022802D003280FD108E00020A06001226C
:10422000214608312046FFF73FFF0AE00122211D09
:104230002046FFF739FF04E029462046FFF705FF37
:1042400000BF00BF70BDF8B504460E46708800126E
:10425000030000F0BDFD0891050E2591916F7F913F
:10426000207C2121090109590A68694690470546C1
:1042700087E0207C002809D1852080000059816AD0
:104280006846884705460221697008E0852080005D
:104290000059C16A6846884705460221697070E086
:1042A000B078030000F094FD06040D161F28313A83
:1042B000207C2121090109594A6869469047054631
:1042C00036E0207C2121090109598A686946904716
:1042D00005462DE0207C212109010959CA6869465B
:1042E0009047054624E0207C2121090109590A69EB
:1042F0006946904705461BE0207C212109010959A8
:104300004A6969469047054612E0207C212109014F
:1043100009598A6969469047054609E0B1788520C0
:10432000800000596A46836B20469847054600BFC7
:1043300000BF26E0207C002807D18520800000599E
:10434000416B6846884705461BE031462046FFF72B
:104350007CFEF8BD207C002809D185208000005912
:10436000016B6846884705460721697009E03146B8
:104370002046FFF76AFEECE731462046FFF765FE70
:10438000E7E700BF68460088002812D0F0880028C0
:104390000FD0F08869460988884202DD68460088A7
:1043A00000E0F088009069460A8829462046FFF719
:1043B0007BFE00BFCDE70146002002E0421CD0B2E8
:1043C000491C0A78002AF9D1704770B504460D4699
:1043D000FF20FD30005D022802D0032813D100E049
:1043E00000BF0120E060812080000059002803D038
:1043F0000221E0680843E060022221460C31204699
:10440000FFF752FE04E029462046FFF71EFE00BFDC
:1044100000BF70BDF8B504460D4617460026002CB7
:104420001ED02046FFF7C7FF4000801C38803A7836
:104430003046711CCEB22A5403223046711CCEB2D3
:104440002A540AE022783046711CCEB22A54641CE9
:1044500000223046711CCEB22A5420780028F1D1B7
:10446000F8BD01460020002906D0012906D0022906
:1044700006D0032908D105E0002007E0022005E06E
:10448000012003E0022001E0022000BF00BF7047CE
:1044900070B504460D461646002C01D1022070BDB1
:1044A000852080000059002803D00021852080004D
:1044B0000151002D02D02120000105510121FF20D2
:1044C000FD3001552670204600F0E8F80020E6E7B0
:1044D000F8B504460D460026002711214901085968
:1044E0002946FCF703FB06463046FFF7BAFF0746AE
:1044F0003846F8BDF8B504460D46002600271121C0
:10450000490108592946FCF7B1F906463046FFF73C
:10451000A8FF07463846F8BDF8B504460E461746CC
:10452000002E5CD125461435FF20F53000590228B5
:1045300048D1E968A868884210D9E968A868401A93
:10454000A860288982B239462046FFF772FD002311
:104550001A461946204600F016F933E0E968686803
:10456000FBF7E4FD002919D1E9686868884215D392
:10457000FF20F9300059696881420FD200221146AC
:104580002046FFF756FD0021FF20F930015100239E
:104590001A461946204600F0F6F813E08520800000
:1045A0000059C06800280AD0FF20FD30005D0328B4
:1045B00005D1852080000059C168204688472046E3
:1045C000FFF764FD01204002005D012819D120465B
:1045D00000F0EDF9002101204002015511E0852095
:1045E00080000059406900280BD0FF20FD30005D9D
:1045F000032806D1852080000059314642692046B3
:1046000090470020F8BDF8B505460E461746002E27
:1046100030D1EC1DFD34FF20F530405903283BD14B
:10462000E168A068884210D9E168A068401AA060DB
:10463000E168A068884201D2A06800E0E06882B228
:1046400039462846FFF7E9FC26E0852080004059DE
:10465000006900280AD0FF20FD30405D032805D105
:104660008520800040590169284688472846FFF781
:104670002DFD11E0852080004059806900280BD075
:10468000FF20FD30405D032806D185208000405981
:1046900031468269284690470020F8BD10B504468F
:1046A0001C48C4611C491120400101511B4808608D
:1046B0000820486002211848816001610021816161
:1046C000C1610162FCF7D2FF002801D0FBF7CDFDEC
:1046D000112149010859182300221146FCF783F8DB
:1046E000112149010859582300228021FCF77BF849
:1046F000112149010859982300228121FCF773F800
:10470000112149010859D82300220121FCF76BF837
:10471000002010BD4409002044070020005C004038
:1047200010B502461120400183588020084080289F
:1047300008D14806400E1C2460431C46283400194A
:10474000807810BD4806400E1C2460431C46FF3490
:10475000093400198078F4E7FEB504460F46154683
:104760001E460020019000901121490108592B4656
:1047700032463946FCF74AFA01900198FFF771FE7C
:1047800000900098FEBDFEB504460D4616461F4635
:104790000020019000901121490108593B46324602
:1047A0002946FCF74BFC01900198FFF75AFE009058
:1047B0000098FEBD10B50446402300221146204655
:1047C000FFF7CAFF4021FF20113001514023002292
:1047D00080212046FFF7C0FF402121620121FF20F8
:1047E000FD3001554320C0000059002806D0217932
:1047F000852080000059426820469047002010BD67
:104800000146FF20FE30425C401E425400207047AB
:1048100010B50446FF20FD30005D03280BD1852034
:1048200080000059C069002805D08520800000590B
:10483000C16920468847002010BD0246117400203F
:104840007047F8B504460D4600260027112149019E
:1048500008592946FCF7D6FF06463046FFF701FE09
:1048600007463846F8BD70B504460D462946412036
:10487000C000201800F07DF80121FF20F530015123
:104880004120C0002018C188FF20F930015141208B
:10489000C000005DC006C00E002804D0012809D069
:1048A000022815D10DE04120C0002118204600F05B
:1048B00057F917E04120C0002118204600F03EFAC9
:1048C00010E04120C0002118204600F082F909E0E4
:1048D0004120C000005D802210400146204600F0CB
:1048E00004F800BF00BF002070BDF8B504460D46B7
:1048F000002600271121490108592946FCF77AFCB6
:1049000006463046FFF7ADFD07463846F8BD70B5A0
:10491000044600250026112149010859FCF79CFF97
:1049200005462846FFF79DFD0646304670BD014608
:10493000FF20FD30425C401C42540422401E425481
:1049400000207047FEB504460D4616461F4600205F
:10495000019000901121490108593B4632462946F1
:10496000FCF7C0FC01900198FFF77BFD00900098D8
:10497000FEBD0A7802704A7842708B78CA781202BB
:104980009A1842800B794A7912029A1882808B79A0
:10499000CA7912029A18C280704702460020002984
:1049A00003D085239B00995000E002207047014608
:1049B0000020704770B504460D46A888002825D110
:1049C000E888002822D1A8784606760EFF20FD3020
:1049D000005D032804D129462046FFF736FB19E085
:1049E000FF20FF30065531462046FFF72AFF2046BC
:1049F000FFF76CFB002E04D00221FF20FD30015593
:104A000008E00121FF20FD30015503E02946204642
:104A1000FFF71BFB70BD70B504460D4602268520CE
:104A200080000059002809D08520800000592946BF
:104A3000026820469047002800D10026304670BD0D
:104A400070B504460D46A8783649087008460078C7
:104A5000012804DD29462046FFF7F7FA60E0FF2031
:104A6000FD30005D022802D0032853D11EE02D48FE
:104A70000078002816D02B48007860600321FF20C2
:104A8000FD300155274801782046FFF7C4FF022872
:104A900004D129462046FFF7D8FA70BD2046FFF71B
:104AA00015FB02E02046FFF711FB38E01D480078B7
:104AB00000280FD10221FF20FD3001551948007850
:104AC0006060184801782046FFF776FA2046FFF725
:104AD000FDFA1EE0134909786068884216D02179F2
:104AE0002046FFF769FA0F48007860600D480178AA
:104AF0002046FFF790FF022804D129462046FFF701
:104B0000A4FACAE72046FFF7E1FA02E02046FFF7E1
:104B1000DDFA04E029462046FFF797FA00BF00BF00
:104B200000BFBAE7A800002070B504460D466888AB
:104B300001280DD1012181208000015185208000B4
:104B4000005929468268204690472046FFF7BEFA62
:104B500070BD10B504462046FFF7D9FE002010BDF9
:104B600070B505460C4600266078030000F030F969
:104B70000A1A24291F290B0629151029214628461F
:104B8000FFF761FB22E021462846FFF713FF1DE0F7
:104B900021462846FFF754FF18E021462846FFF734
:104BA00029FB13E021462846FFF70FFC0EE02146C3
:104BB0002846FFF7B9FF09E021462846FFF708FA23
:104BC00004E021462846FFF740FA00BF00BF304608
:104BD00070BDF8B505460E46002000903479307857
:104BE00060210840202808D18520800040593146A6
:104BF0008268284690470020F8BD707800285FD072
:104C000001282FD0032876D1FF20FD30405D0228F7
:104C100002D003281FD108E0002C05D0802C03D03F
:104C200021462846FFF761FE1AE07088002807D168
:104C3000002C05D0802C03D021462846FFF755FED6
:104C40008520800040593146826828469047284692
:104C5000FFF73CFA04E031462846FFF7F6F900BFBB
:104C600000BF68E0FF20FD30405D022802D003282D
:104C70001FD108E0002C05D0802C03D02146284607
:104C8000FFF733FE1AE07088002811D16006400E4D
:104C900000280AD021462846FFF71AFC852080000C
:104CA000405931468268284690472846FFF70EFA59
:104CB00004E031462846FFF7C8F900BF00BF3AE0DC
:104CC000FF20FD30405D022802D003282BD108E0F0
:104CD0006006400E002803D021462846FFF705FE57
:104CE00026E080202040802806D16006410D28461D
:104CF0001430081805E01DE06006410DE81DFD3088
:104D00000818074621462846FFF70AFD002802D06A
:104D10000120386001E00020386002223946284630
:104D2000FFF7C2F904E031462846FFF78EF900BFCD
:104D300000BF00E000BF00BF00985DE770B504460B
:104D40000D460026FF20FD30005D032817D128798D
:104D500001280FDC85208000005929468268204602
:104D60009047E888002809D1002E07D12046FFF798
:104D7000ADF903E029462046FFF767F904E029462C
:104D80002046FFF762F900BF00BF002070BD7047EA
:104D900001460148704700006409002010B5024632
:104DA00000230648846900BF03E0E05C1070521CD9
:104DB0005B1C8B42F9D3084610BD00002007002081
:104DC00010B50248FCF78EFB10BD00004407002020
:104DD00030B47446641E2578641CAB4204D3635D12
:104DE0005B00E31830BC18471D46F8E702E008C82E
:104DF000121F08C1002AFAD170477047002001E055
:104E000001C1121F002AFBD170470000FBF788FC8C
:104E1000FEF7D2FBFDF7AAFEFEF717FAC820FBF754
:104E200060FBFDF789FEFDF723FFFDF743FFFDF76C
:104E3000E3FEFDF7FDFEFF2201321B491B48FDF793
:104E40007DFD1B48FDF7DEFA1A48FDF7DBFA29E085
:104E500019480078012823D140211848FFF79EFF08
:104E6000C4B21648007800280FD0012802D00228CA
:104E700011D104E011484078114908700BE011A2EB
:104E80000F210220FEF7C2FA05E00EA20F2100203A
:104E9000FEF7BCFA00BF00BF00200749087000BF42
:104EA000FEF7FEF9D4E7000020040020AC0100204A
:104EB0002C0100206C01002008000020E0020020EE
:104EC0006002002020202020202020200000000060
:104ED00000000000000000000102030406070809AA
:104EE0000000000001020304084F00080000002039
:104EF0002C010000A0010008B84F00082C01002080
:104F000094120000FC4D0008011C1325411B08757C
:104F1000041A85041AA9041ADD0413E9401B083594
:104F20000813120132021640830450572602010270
:104F30000301071A040309041A031306FF100809E2
:104F400001A1010903151226780AFF750895408111
:104F50000209040D249102C0226C1420FB011B08DD
:104F6000F704130102520853127A13193E140891E0
:104F70003D1B08C108411AD10C1A55041A6704C117
:104F80001AF91069045A092C140902291301012580
:104F9000C03209042A02A515092111011401222297
:104FA0001607058103402D1007050107A91A314B8B
:084FB0000A06E819DF110000F8
:04000005080000C12E
:00000001FF
