:020000040800F2
:1000000050170020D50000088513000801130008D0
:1000100000000000000000000000000000000000E0
:10002000000000000000000000000000571700085A
:1000300000000000000000005517000859170008D4
:100040000501000800000000050100080501000886
:100050000501000805010008050100080501000868
:100060000000000005010008050100080501000866
:100070000501000805010008050100080000000056
:100080000501000800000000000000000501000854
:100090000000000005010008050100080501000836
:1000A0000000000005010008000000000501000834
:1000B00005010008000000000000000049230008BE
:1000C0000348854600F05AF800480047912300088D
:1000D000501700200C4880F308880C480168090E6E
:1000E0000B4A914205D10B480B4901600B480C4962
:1000F00001600C4880470C480047FEE7FEE7FEE73A
:10010000FEE7FEE7FEE700005017002004000000B5
:100110001F00000018100240010000000000014014
:1001200000000000BD170008C100000830B50B46F4
:10013000014600202022012409E00D46D5409D42C1
:1001400005D31D469540491B254695404019154647
:10015000521E002DF1DC30BDD2B201E00270401C15
:10016000491EFBD270470022F6E710B513460A4637
:1001700004461946FFF7F0FF204610BD064C012546
:10018000064E05E0E36807CC2B430C3C984710343F
:10019000B442F7D3FFF798FFD4230008F4230008F4
:1001A0000020704700207047002070477047000013
:1001B00001480068704700006400002002480168A0
:1001C000491C0160704700006400002010B506481B
:1001D0000168102211430160002000F007F800F0D0
:1001E00017F8002010BD00000020024010B50446A2
:1001F00000F082FE7D21C900FFF798FF01F068F84A
:1002000000222146501E00F027F8002010BD0000FB
:1002100008B50A4881690122114381618169114051
:100220000091C26901040A43C261C069084000909C
:100230000348016810221143016008BD001002400C
:1002400000000140C106C90E012088400149086034
:100250007047000000E100E010B501F095F810BD16
:1002600010B50C0606D54906490E1C246143081832
:10027000283004E01C2461430818FF30093099B28B
:10028000002A06D001228272C180190C018100204F
:1002900010BD002282728180F9E71C224A431218A5
:1002A00010B5FF30FF300230926BC06901F040FDA5
:1002B00010BD1C224A43121810B5FF30FF32FF3028
:1002C000013202309269C06901F08DFD10BD00005D
:1002D000F0B54A06520E13461C256A43CC09121883
:1002E000002C01D0283201E0FF320932044613709D
:1002F000C909FF345170E134217A01293DD001212F
:100300002172957A494B002D4949557837D0002DF7
:1003100005681678AC465BD0B600AD5B6F0404D5BB
:10032000444F0D403D436746BD5305681678AC46C3
:10033000B600AD5B6F0605D53C4F0D4040373D43E1
:100340006746BD5315780668AF00F55B0D40394927
:100350000D43F553364F117830373D40066889001C
:100360001D4375521178334A00688900F13A1540EF
:100370001D43455200202072F0BD0220F0BD002D2B
:1003800005681678AC4610D0B600AD5B6F0605D593
:100390000D40264940310D4361468D530568107864
:1003A000234A8100685A30320EE0B600AD5B6F041C
:1003B00004D50D401F490D4361468D5305681078E3
:1003C0001C4A8100685AF13A104018436852D1E73C
:1003D000B600AD5B6F0404D5164F0D403D43674634
:1003E000BD5305681678AC46B600AD5B6F0605D503
:1003F0000E4F0D4040373D436746BD5315780768A3
:10040000AE00BD5B0D40094940310D43BD53094F5E
:100410001678F13F3D400168B6001D438D531178B9
:10042000034A890000683032A1E7000080800000A4
:100430008F8F000080C00000F0B54B06CA095B0E2C
:10044000002A04D01C225A431218283204E01C222D
:100450004A431218FF320932002494701370034685
:10046000C909FF335170E133197A01291AD00121EA
:10047000197251781A4C00291178066814D08D0031
:10048000715B4F0603D52140164C214371531178FF
:1004900000688A00124C815A303421401024614097
:1004A000202414E00220F0BD8D00715B4F0403D5C1
:1004B00021400D4C21437153117800688A000A4C89
:1004C000815AF13C214001242403614064006140D1
:1004D000044C403C2143815200201872F0BD0000C2
:1004E0008F8F0000C080000080C00000F0B54D0676
:1004F0006D0E2E461C246543CF092C18002F01D009
:10050000283401E0FF3409342670C90961700146BE
:10051000FF31E260E131E3708C46097A01290DD0A8
:10052000012261460A72E2789349002A08D0012A22
:1005300020D0022A0DD0032A25D111E00220F0BDDF
:10054000237802689B00D55A0D40FF35FF350235F0
:1005500004E0237802689B00D55A0D40D55212E082
:100560002278036892009D5A0D40032149026918C0
:10057000995208E0237802689B00D55A0D4001216A
:1005800089026918D15226780768B5007B5B7B49E0
:100590007B4A0B40134333437B53A57A002D53D042
:1005A0002578784E0B400768AD0033437B53E388D2
:1005B00050265D0803686D00F65AF6182378DF00B0
:1005C00001239B02FB18F552238950265D0803681E
:1005D0006D00F65AF6182378DF005311FB18F55218
:1005E00063780768002B237875D09D007B5B5E04E1
:1005F00003D5654E0B4033437B53237807689D003A
:100600007B5B5E0604D55E4E0B40403633437B5326
:10061000237805689E00AB5B0B405B490B43AB53F3
:10062000564E2178303633400568890013436B52AB
:100630002178554C00688900F13C23401343435214
:10064000002061460872F0BD6378002BA3881FD09C
:100650005D0803685026F65A6D00F6182378DF000F
:1006600001239B02FB18F552237807689D007B5BF2
:100670005E0604D50B40424940310B437B53016871
:1006800020783E4C8300C85A30342040202440E07B
:100690005D0803685026F65A6D00F6182378DF00CF
:1006A0003A4BFB18F55203685025ED5A374EEB18BC
:1006B0002578B61CED00AD195E19E3683E2B0BD909
:1006C000DD022D0CDB0601D16D1EADB2AB020125A2
:1006D000ED032B4307E020E0DD032D0CDB0701D009
:1006E0006D1CADB2AB023380237807689D007B5B45
:1006F0005E0403D50B4024490B437B5301682078EB
:10070000214C8300C85AF13C20400124240360405E
:10071000640060401043C85292E79D007B5B5E041A
:1007200003D5194E0B4033437B53237807689D0054
:100730007B5B5E0604D5124E0B40403633437B5341
:10074000237805689E00AB5B0B400D4940310B439D
:10075000AB530D4E2178F13E3340012636037340F2
:10076000760073400568890013436B522178034C6F
:1007700089000068303460E78F8900008F8F0000A7
:10078000808000008081000080C000000404000020
:10079000F0B54D066D0E1C246C432418FF3409344B
:1007A000636122610022A26162702570E5681E46C5
:1007B000AB4201D92B46F21A6261A67A49060122A0
:1007C000890DD203002E2F4D06680CD05027BF5B39
:1007D000BE192F1FC91976183E2B15D9D902090C3D
:1007E000DF060CD00DE05027BF5B4919BE19751804
:1007F00020E08902114300E08902298032E0491E8D
:1008000089B28902114306E0D903090CDF0701D040
:10081000491C89B2890231806178002902D00129FE
:1008200018D01FE001685026765A71182678F60015
:1008300075194D193E2B06D9D902090CDB06D8D102
:10084000491E89B2D5E7D903090CDA07D4D0491C6F
:1008500089B2D1E701685022525A51182278D20049
:1008600052198B5201682078074B8200885A184031
:1008700001231B0358405B005840044B1843885227
:100880000020F0BD060400008FBF00008080000043
:10089000F0B50246FF32E132137A012B0BD001246E
:1008A0004F06CB097F0E1472002B06D01C237B430E
:1008B0001B18283306E00220F0BD1C234B431B18F5
:1008C000FF3309339C701F70CE095E70012424032E
:1008D0001025114B002F0BD04906C90D002E10D04A
:1008E00004680E4E605A304068401843605210E071
:1008F00001680B4E0888304060406840184308800B
:1009000007E00568064E685A303E304060401843A4
:10091000685200201072F0BD80800000BF8F000080
:10092000BFBF0000F0B506461D464806400E1C231A
:1009300043439C19E563A263002222640123283407
:1009400063702070E0682B46854203D90546181A6B
:10095000606100E06261A07A2A4F002810D02278FE
:1009600030689200825C49065206890D002A16DA28
:100970005022125A10183A1D89184552228914E043
:10098000ABB2A2882169306800F0D1FE30685021F6
:10099000095A08182178C900C919455220E0502287
:1009A000125A1018C9194552E288ABB22169306851
:1009B00000F0BDFE61781448002902D0012907D05B
:1009C0000EE0217832688B00D15A01400F4805E0D3
:1009D000217832688B00D15A01400D480143D15231
:1009E000207831688200084B885A30331840102331
:1009F000584020235840054B403B18438852002064
:100A0000F0BD0000020400008F8F0000C0800000D5
:100A100080C0000070B50446006840308088C00B7C
:100A200002D0204600F0D2FC206840308188490581
:100A30000AD58188334A11408180204600F0DAF8D7
:100A40000021204600F008F92068403081884904E0
:100A500003D581882C4A11408180206840308188EC
:100A6000890403D58188294A11408180206840305B
:100A700081880425C904002910DA0188A94301806E
:100A8000BD202168000240310880204600F0C6F8F1
:100A90002068403081881E4A1140818020684030A3
:100AA0008188090517D581881A4A114081802068FC
:100AB00040300188082211430180206840300188BD
:100AC00029430180206840308088C043C00402D59B
:100AD000204600F0EBF8206840308188890506D573
:100AE00081880D4A11408180204600F0ADF82068D1
:100AF00040308188C90503D58188084A114081802A
:100B000070BD0000FFFB0000FFBF0000FFDF000022
:100B1000FFEF0000FFF70000FFFD0000FFFE0000F8
:100B2000F8B500270446002807D02646FF36E136F0
:100B3000707A0025002802D005E00120F8BD35724A
:100B4000204600F03BF80320707201210BE01C20CE
:100B5000784302191046203041720772C5725563FE
:100B600095637F1CD5636068B842F0D800200BE025
:100B70001C2242431219FF32013255721072D57293
:100B800055619561401CD56162688242F0D8206849
:100B900040300180206840300580206840308580EA
:100BA000206840300582BF20226800024032108059
:100BB0002034257171720020F8BD000008B500686E
:100BC0000A49884210D10A48C2690121C9050A436D
:100BD000C261C06900220840009011461F20FFF743
:100BE0003BFB1F20FFF72EFB08BD0000005C004010
:100BF0000010024070B5044680680125022801D02B
:100C0000FFF7D4FAFF34FF3402342946E06901F0DB
:100C1000C0F9E06901F085F970BD000010B5044627
:100C20008069002806D007480169062291430161C6
:100C300000F096FDFF34FF340234E06901F094F9CE
:100C400010BD000000ED00E0FF3010B5FF300230B5
:100C5000C06901F08FF910BD0246FF32E132137A0C
:100C6000012B08D001231372002906D02030017116
:100C700000201072704702207047006880214030C9
:100C80008181F5E710B5872189000A580146FF31B7
:100C9000ED31104601F08AF910BD00684030018B3B
:100CA0000122D203114301830020704710B504468E
:100CB000FF30FF300230C06901F0BBF9A0690028A5
:100CC00004D00348016906221143016110BD0000F0
:100CD00000ED00E0F8B505460068394CC00352D578
:100CE000E0690026C00007D4E16920040143E16106
:100CF000E16901400126009132480168C90510D41C
:100D00000168821511430160FFF752FA074604E0BB
:100D1000FFF74EFAC01B642824D82A480068C00593
:100D2000F6D5206A03273F02384020D06968394051
:100D300081421CD0206A226AB843012109040A4377
:100D40002262226A8A4322622062C0070FD0FFF724
:100D50002FFA009008E0FFF72BFA0099411A1A4881
:100D6000814201D90320F8BD206A8007F3D5206AAB
:100D70006968B84308432062002E04D0E16901206D
:100D800000078143E1612878C00705D0206BA9687E
:100D900080088000084320632878800605D5206BF2
:100DA00010218843E968084320632868800305D53B
:100DB000206B802188432969084320630020F8BD07
:100DC000001002400070004088130000F8B505468E
:100DD00044480E460068C007C00FB0420AD24148DE
:100DE000016849084900314301600068C007C00F2D
:100DF000B0425CD128783C4C800705D56068F02172
:100E00008843A968084360602878C0073FD06868B5
:100E1000012813D02168022813D08907002946DA57
:100E200061688908890001436160FFF7C1F9696859
:100E3000074601290DD0022917D024E02168890333
:100E4000ECE78901EAE7FFF7B3F9C11B27488142C4
:100E500017D860680007800F0128F4D117E0FFF76A
:100E6000A7F9C11B214881420BD860680007800F99
:100E70000228F4D10BE0FFF79BF9C11B1B4881420C
:100E800001D90320F8BD60680007800FF3D1154831
:100E90000168C907C90FB1420BD901684908490067
:100EA000314301600068C007C00FB04201D001208B
:100EB000F8BD2878400706D56068072109028843F5
:100EC000E9680843606000F01DF86168084A090697
:100ED000090F515CC840074908600020FFF786F9F8
:100EE0000020F8BD002002400010024088130000DE
:100EF000C423000868000020014800687047000013
:100F00006800002010B511A30FCB88B06C460FC449
:100F100012A30FCB0FC415494A680C201346034097
:100F20001348042B0FD0082B0DD193021B0F6C46D6
:100F3000E45CC96A04AB0907090FD203595C920F3C
:100F4000FFF7F4F8604308B010BD00000203040589
:100F5000060708090A0B0C0D0E0F101001020304FE
:100F600005060708090A0B0C0D0E0F1000100240B1
:100F700000127A00FEB504460078D24DC00749D071
:100F800068680007800F012820D068680007800F7C
:100F9000022804D16868C003800F022816D00120FF
:100FA00062680004012A18D08100002A01D0052AB5
:100FB00017D02A6882432A602868884328606068BE
:100FC00000281BD0FFF7F4F8064613E028688003DA
:100FD00020D56068002876D01CE02968014329608C
:100FE000EDE72A680A432A60F7E7FFF7E1F8801B7C
:100FF000642869D828688003F7D50BE0FFF7D8F894
:10100000064604E0FFF7D4F8801B6428F1D828686E
:101010008003F7D420780126800700283DDA68682D
:101020000007800F13D068680007800F022804D1E2
:101030006868C003800F012809D0E068002828688C
:101040001CD030432860FFF7B3F807460BE0286850
:1010500080070BD5E068012835D107E0FFF7A8F835
:10106000C01B0228C5D828688007F7D52868F82152
:1010700088432169C900084328600EE04008400009
:101080002860FFF795F8074604E0FFF791F8C01BCA
:101090000228AED828688007F7D42078000723D527
:1010A000E0690028686A10D030436862FFF780F872
:1010B000074604E0FFF77CF8C01B022899D8686A4D
:1010C0008007F7D510E0FAE0A4E04008400068622D
:1010D000FFF76EF8074604E0FFF76AF8C01B022826
:1010E00087D8686A8007F7D420780427400700284B
:1010F00060DA00200190E869C00008D4E969B80608
:101100000143E961E96901400120009101906E48C5
:101110000168C90511D40168821511430160FFF708
:1011200047F8009005E0FFF743F80099401A64285B
:1011300070D865480068C005F5D5A06801280AD0B8
:10114000002801D0052810D0286A400840002862F5
:10115000286AB84301E0286A30432862A068002862
:1011600012D0FFF725F800900AE0286A3843286279
:10117000F1E7FFF71DF80099411A5448814249D818
:10118000286A8007F5D50DE0FFF712F8009006E019
:10119000FFF70EF80099411A4C4881423AD8286A64
:1011A0008007F5D40198002804D0E96901200007E0
:1011B0008143E9612078C00635D5606901280CD0EB
:1011C000401D686B23D038436863686B400840005B
:1011D0006863FEF7EDFF064622E0686B38436863FC
:1011E000686B30436863FEF7E3FF064604E0FEF7F2
:1011F000DFFF801B02285BD8686B8007F7D5686B20
:10120000F8218843A169C900084368630BE0B8432B
:101210006863F4E74CE0FEF7CBFF801B022847D859
:10122000686B8007F7D4206A002846D069680907F0
:10123000890F022943D0012636060228286805D0E6
:10124000B0432860FEF7B4FF044633E0B0432860A3
:10125000FEF7AEFF074604E0FEF7AAFFC01B022818
:1012600026D828688001F7D4E86AE16A00090001FD
:101270000843E862616AA06A084369687B22D20376
:10128000914308436860286830432860FEF790FF68
:10129000044604E0FEF78CFF001B022808D82868EB
:1012A0008001F7D509E0FEF783FF001B022801D972
:1012B0000320FEBD28688001F5D40020FEBD01207A
:1012C000FEBD0000001002400070004088130000C6
:1012D000094910B5401E884201D9012010BD074CB4
:1012E00060610321081F00F04FF80020A061072073
:1012F0002061002010BD0000FFFFFF0000E000E0C3
:10130000FEE770B500231D460EE0040F0A2C02D242
:101310005E00303401E05E0037348C555C006418A8
:1013200000015B1C6570DBB29342EED370BD000020
:1013300010B500220F49104800F0CDFC002801D064
:10134000FEF734FF0D490C4800F099FE002801D04B
:10135000FEF72CFF0A49084800F0DBFA002801D00C
:10136000FEF724FF044800F0DBFE002801D0FEF762
:101370001DFF10BD00000020F000002070000020C4
:1013800054000020704700008307FF22DB0E9A40C4
:101390008907090E994000280BDA0007000F08386A
:1013A000830808489B001818C36993430B43C36123
:1013B0007047830804489B001B1818689043084333
:1013C0001860704700ED00E000E400E0F0B585B083
:1013D00004460020694688802646203678E19A89AE
:1013E00017073F0F26D0B9000291425A9A80998878
:1013F00009047DD5BE490A400299425238461C2153
:1014000048430519FF350935A87A0028206870D0AF
:1014100029788A00825A52046CD55022125ACB0085
:10142000B44912185918515A8905890D00917DD077
:10143000EA88BDE09A89D20627D40188AE4A2546BB
:101440001140018020685021095A28350818297850
:10145000CA00A8495118405A8005800D2064A16B2C
:101460000818A06300212046FEF717FF30790028F6
:10147000B4D068690028B1D130798021084321684F
:10148000403188810020307122E12546FF350288F5
:1014900009359A809B881B0519D5098A091828786F
:1014A000C2009448001D1018085A294683059B0D58
:1014B000AB61AA88E431206800F024F920688C4AE6
:1014C0000188114001802046FFF7DCFB00E16946FE
:1014D00089880904D8D58649864F0A400280206849
:1014E0005021095A3F1D09182878C000C01902E090
:1014F00085E03DE04FE0085A83059B0DAB6108D0C5
:10150000AA882969206800F0FDF8A96928694018AF
:10151000286100212046FEF7CCFE206801464030BD
:10152000008A4018C119E8683E2800E044E00AD962
:10153000C202120CC00601D1521E92B290020122C8
:10154000D203104306E0C203120CC00701D0521CA4
:1015500092B2900208802168684A088810400122EF
:101560001203504052005040654A10430880AFE0DB
:101570005021095A0A182978CB005E49091D5918CB
:10158000515A8905890D009121D0AA882969009BAB
:1015900000F0B8F81BE05022CB00125A554912183F
:1015A000091D5918515A8905890D009104D02A89BD
:1015B0002969009B00F0A6F8297820688A004E4B24
:1015C000815A803319404E4B403319438152A969E7
:1015D00000980818A861296900980A182A616B699F
:1015E000002B03D0E9680098814204D9297820466D
:1015F000FEF75FFE03E029782046FFF7C9F868464A
:101600008088000664D51C204743206802993A4A26
:10161000415A3D191140029A28358152A87A002872
:10162000206811D029788A00825C52061ED550228B
:10163000125AC90012182F480818105A83059B0D1A
:10164000AB6124D0EA881EE05021095A0918287895
:10165000C20028481018085A83059B0DAB6121D0A1
:10166000AA882969206800F062F81BE05022125A0B
:10167000C90012181F48001D0818105A83059B0D39
:10168000AB6104D02A892969206800F050F82878D5
:1016900022688000184B115A80331940174BF133E0
:1016A0001943115220685021095A09182878C2009C
:1016B00010481018085A8005800DA86129690A1879
:1016C0002A616B692978002B20460DD0FFF72AF993
:1016D0002068014640318A886B469A81120400D501
:1016E0007DE6002005B0F0BDFEF7D7FDF0E7000075
:1016F0008F0F0000020400000F8F00008FBF00005A
:1017000080800000101810B5012292025C08801839
:10171000002C07D002880A70120A4A70801C891CAB
:10172000641EF7D1DA0701D00078087010BD1018D8
:1017300001225B1C920210B55B088018002B08D0B8
:101740004A780C78120222430280801C891C5B1E9E
:10175000F6D110BD7047704710B5FEF72FFD10BDD4
:1017600030B595B030216846FEF7FDFC00240C949E
:101770000D940E94142110A80F94FEF7F4FC012090
:101780000190009000040990000102250A9008953C
:101790000B946846FFF7EEFB07200C900E94012196
:1017A0000D950F940CA8FFF711FB280410908020D2
:1017B000149010A8FFF78EFA15B030BD15480168D7
:1017C0000122114301604168134A114041600168E0
:1017D000124A1140016001680122920491430160A4
:1017E00041683F22120491434160C16A090909011D
:1017F000C162016BFF22943291430163016B80222D
:1018000011430163416B4908490041630021816034
:1018100070470000001002400CB8FF08FFFFF6FE02
:10182000FF300021FF3002308069017508467047A3
:1018300070B5C51DFF35FA35AC69EA690646D26850
:10184000617820789047022322460121304600F03B
:101850005EFB002070BD10B50446812100F05EFAE9
:101860000121204600F05AFAFF34FF340234A06907
:10187000002807D0E06980688047A06900F05EFD1D
:101880000020A061002010BDFF3010B5FF300230F5
:1018900084692169012907D1C0692278C368617808
:1018A0001046984700202061002010BD29210180AA
:1018B00000487047AC0000200A21018000487047B2
:1018C000E400002070B50446002602230322812193
:1018D00000F010FB022303220121204600F00AFB46
:1018E000182000F02DFDE11DFF31FA31886100283C
:1018F0000DD0054600202875C8694068804702233E
:101900002A460121204600F002FB304670BD012628
:10191000FBE702460220002904D0FF32FF320232E8
:101920000020D16170470000F8B5C41DFF34FA34BF
:10193000002225460E78A469602713463E4025D034
:10194000202E48D14A78921E130000F005FD0A109F
:10195000091B1B1B1B1B140C061B887860603AE0DC
:101960000122211D2EE04888000AA06033E00122F8
:101970002146083126E0012222618A79214600F0C1
:1019800051F828E000F044F80220F8BD4E78062E09
:1019900004D00A2E19D00B2E1DD11AE04C88240A2F
:1019A000222C02D0212C07D00BE0CA88022A00D9B1
:1019B0000222E9690B6804E0CA88084B092A00D9A9
:1019C0000922194600F04AF805E0012221460C31AF
:1019D000F8E78878E0600020F8BD0000D80000201B
:1019E00010B585229200125852689047002010BD11
:1019F000134610B50A46002100F089FA002010BDF8
:101A0000134610B50A46002100F01BFB002010BD54
:101A100010B50446802100F0F8FA0021204600F0BD
:101A2000F4FA10BD10B5FF230324F5331C50C31D79
:101A3000F9339A60DA6013460A46002100F067FA2B
:101A4000002010BD10B5FF210522F5310A500023FA
:101A50001A46194600F05BFA002010BD10B5FF23AE
:101A60000224F5331C5082611346C2610A460021EC
:101A700000F0E7FA002010BD10B5FF210422F53177
:101A80000A5000231A46194600F0DBFA002010BD68
:101A900010B50A46024903A000F0EFF8004810BD57
:101AA00050050020437573746F6D204849442043EE
:101AB0006F6E66696700000012200880004870475A
:101AC0002000002010B50A46024903A000F0D5F816
:101AD000004810BD50050020437573746F6D204899
:101AE000494420496E7465726661636500000000B8
:101AF00004200880004870471C00002010B50A46EA
:101B0000024903A000F0B9F8004810BD50050020BC
:101B100053544D6963726F656C656374726F6E695F
:101B20006373000010B50A46024903A000F0A5F84F
:101B3000004810BD5005002053544D3332204375EA
:101B400073746F6D2048756D616E20696E74657277
:101B5000666163650000000010B51A20088009481E
:101B6000046BC16A406B081809D008220649FFF7C8
:101B7000C8FB0549042210312046FFF7C2FB02488A
:101B8000801E10BD80F7FF1F36000020F8B50D46FF
:101B900004464988FF300A0AFF300230130000F083
:101BA000DBFB08500509165050454D500069237C59
:101BB000026817E0217C02264069002905D0C16A2D
:101BC000684688470146467047E0816AF8E7CAB22E
:101BD000130000F0C1FB06040B0F161A1E24006947
:101BE000237C426869461846904716E00069227CCB
:101BF000836802E00069227CC36869461046984702
:101C00000BE00069227C0369F7E70069227C4369E5
:101C1000F3E70069227C8369EFE701461DE0406934
:101C2000C9B2836B6A4620469847F6E7217C0029B3
:101C300007D14069416B68468847EEE7217C00295F
:101C400004D029462046FFF7E3FEF8BD4069016B4A
:101C50006846884707220146427068460088002887
:101C6000F3D0EA88002AF0D0824200D902466846C2
:101C700002802046FFF7F2FEF8BD70B50023002871
:101C80001CD00446002502E06D1CEDB2641C2678D1
:101C9000002EF9D16C00A41C1480CC5403225B1CD0
:101CA000CA5400245B1C06E0CA545B1CDAB28C5494
:101CB000521CD3B2401C0278002AF5D170BD0146F7
:101CC0000020002904D0012901D0022901D00220DE
:101CD00070470120704710B5002813D0C31DFF3393
:101CE000FA335C69002C01D000245C61002900D02B
:101CF0001961FF210123FD310B54027000F0AEF891
:101D0000002010BD022010BDFF3010B5FF300230A2
:101D1000006AFEF791FBFFF7D2FF10BDFF3010B550
:101D2000FF300230006AFEF7D3FAFFF7C8FF10BD9C
:101D3000FEB50446FF30E51DE130FF35FA351346A8
:101D40000190002908D068694269002A49D00198A9
:101D5000007F032843D044E02646FF3681362046E4
:101D6000716F1430022934D1C268816800929142A7
:101D700007D9891A81608AB219462046FFF740FECA
:101D800013E0406811460746FEF7D0F9002913D149
:101D90000098874210D3B06F87420DD200221146BF
:101DA0002046FFF72DFE0020B06700231A46194693
:101DB000204600F0ACF80CE06869C168002905D045
:101DC0000198007F032801D1204688472046FFF76D
:101DD00039FE2878012804D10020287001E020462F
:101DE00090470020FEBD70B50546FF35E1352B4616
:101DF000203316460446002907D058698269002A14
:101E000029D0287F032824D025E0FF21F531E01DCB
:101E10000959FD3003291ED18268C1688A420BD955
:101E2000511A8160C068814200D301468AB23146AE
:101E30002046FFF7DDFD0EE058690169002904D056
:101E4000287F032801D1204688472046FFF714FE4B
:101E500001E020469047002070BD000010B51949F0
:101E6000C41DC861FF341849FA341848216208605B
:101E70000820486002208860086100208861C861ED
:101E800008620846FEF74CFE002801D0FEF78EF9E6
:101E9000002218231146206AFEF7E2F95823002297
:101EA0008021206AFEF7DCF9982300228121206A34
:101EB000FEF7D6F9D82300220121206AFEF7D0F9D7
:101EC000002010BD3005002030030020005C0040E1
:101ED000FF30CA09FF3049060230490E1C23006A50
:101EE00059430818002A01D0203001E0FF300130AA
:101EF000807A704710B5FF301C46FF300230134621
:101F0000006A2246FEF7F2FAFFF7D9FE10BDFF3055
:101F100010B5FF300230006AFEF73AFCFFF7CFFE43
:101F200010BD70B50022044640231146FFF7E2FFC2
:101F30004025FF20113005512B46002280212046EC
:101F4000FFF7D8FFFF200121FD3025620155E01D7C
:101F5000FF30FA308169002904D040692179426854
:101F600020469047002070BDFF30E130417F01776F
:101F70000020704710B5FF21FD31095C032906D10F
:101F8000852189000958C969002900D088470020A7
:101F900010BD017400207047FF3010B5FF300230D3
:101FA000006AFEF759FEFFF78AFE10BD70B50446C1
:101FB0004120C0002018054600F04DF82146FF31B1
:101FC00081310122084680304A67C2898A67007AD7
:101FD000C106C90E0AD001290DD0022910D0C109AD
:101FE000C901204600F011F8002070BD29462046A6
:101FF00000F09BF8F8E72946204600F082F9F3E765
:102000002946204600F008F9EEE7FF3010B5FF3012
:102010000230006AFEF73CFCFFF751FE10BDFF30B6
:1020200010B5FF300230006AFEF737FEFFF747FEBB
:1020300010BDFF30E130017F41770421017700209E
:102040007047FF3010B5FF300230006AFEF76AFCBF
:10205000FFF735FE10BD0A7802704A784270CB78DF
:102060008A781B02D21842804B790A791B02D21857
:1020700082808A79C97909025118C1807047024665
:102080000020002904D0FF32FF3202325161704734
:102090000220704710B58522920012580224002AAF
:1020A00004D012689047002800D10024204610BDBB
:1020B00070B50E468978194D04462970012904D956
:1020C00031462046FFF7A4FC70BD2046FF30E130CA
:1020D000027F022A15D0032AF2D1002917D06068A6
:1020E00088420AD0C1B22046FFF77AFC29786160A5
:1020F0002046FFF7CFFF0228E2D02046FFF7BCFCC6
:1021000070BD0029F9D0032261600277F0E7022256
:10211000027720466160FFF763FCEEE76C00002069
:1021200010B5FFF77CFF002010BDF8B5002200922B
:10213000C61DFF364C781746FA3632460125203A3E
:10214000230000F009F90A3C564150410906412B91
:102150002841FFF71BFD5DE004468888002818D160
:10216000C888002815D1887817464606107F760E55
:1021700003280ED0BE7731462046FFF70DFF2046DC
:10218000FFF77AFC002E02D00220387742E03D773C
:1021900040E0204618E0FFF78BFF3BE0CB88012BA7
:1021A00012D1127F022A02D0032A0DD104E00122AB
:1021B00001460831876013E00122011D10E0127F03
:1021C000022A04D0032A02D0FFF722FC22E0C560D5
:1021D0007168002901D00321C160014602220C313F
:1021E000FFF73CFC16E004464888012812D17560D0
:1021F00009E00446107F022801D00328C9D148888D
:10220000012807D177607069826820469047204690
:10221000FFF732FC0098F8BDF8B504460D46287863
:10222000E61D4006FF3600270979800FFA3601289F
:1022300009D06A7830462038002A38D0012A1ED0CA
:10224000032A3DD106E070692946826820469047FE
:102250000020F8BD007F022817D003282CD1688801
:10226000002806D1002904D0802902D02046FFF79B
:10227000CCFE7069294682682046904713E0007FB3
:10228000022802D0032817D104E0002918D08029A1
:102290001AD115E06888002812D1480603D02046DC
:1022A000FFF732FDE5E72046FFF7E6FB08E0007F99
:1022B000022807D003280BD029462046FFF7A8FBA9
:1022C0003846F8BD4806FBD02046FFF79EFEF7E7EC
:1022D000C80904D04806400D0519143504E0480625
:1022E000400D0519FF3505352046FFF7F1FD0028A3
:1022F00000D001202860022229462046FFF7AEFBCD
:10230000DEE770B50446FF30E130007F0D4603285C
:102310000FD1287901280CD88520800000598268C7
:1023200020469047E888002806D12046FFF7A4FB06
:1023300002E02046FFF76CFB002070BD70470000F4
:10234000004870471403002010B50248FEF762FBF6
:1023500010BD00003003002030B47446641E2578A0
:10236000641CAB4200D21D46635D5B00E31830BCC9
:10237000184702E008C8121F08C1002AFAD17047A6
:102380007047002001E001C1121F002AFBD17047F5
:1023900008B5FDF71BFFFFF7E3F909484269012182
:1023A00089050A43426142690A4000924269491123
:1023B0000A434261406908400090FEF7B9FFFEE71A
:1023C00000100240000000000000000001020304B1
:1023D00006070809F423000800000020F0000000B0
:1023E00072230008E4240008F000002060160000BA
:1023F00082230008B91A0008F11A0008FD1A000823
:10240000251B0008591B0008911A0008C51A00086E
:102410000403090412010002000000408304505725
:1024200000020102030100001A0300000000000086
:10243000000000000000000000000000000000009C
:102440000000000000C0000050000020A5010008AE
:10245000A1010008A90100080000000000127A0094
:1024600000000000C51800085718000829190008C6
:102470000000000089180008211800083118000821
:10248000000000000000000000000000AD1800087F
:10249000AD180008AD180008B918000800000000C9
:1024A00009022900010100C03209040000020300F2
:1024B0000000092111010001220200070581030229
:1024C000002007050103020020000000092111017E
:1024D00000012202000000000A0600020000004085
:0424E00001000000F7
:04000005080000C12E
:00000001FF
