:020000040800F2
:10000000E0120020D5000008AD1B00088F1A000880
:1000100000000000000000000000000000000000E0
:100020000000000000000000000000007F1F00082A
:1000300000000000000000007D1F0008811F000874
:100040000501000805010008050100080501000878
:100050000501000805010008050100080501000868
:100060000501000805010008050100080501000858
:100070000501000805010008050100080501000848
:100080000501000800000000000000003920000801
:100090000000000005010008050100080501000836
:1000A0000000000005010008050100080501000826
:1000B000C124000800000000050100082D300008E0
:1000C0000348854600F06CF800480047753000088A
:1000D000E01200200C4880F308880C480168090EE3
:1000E0000B4A914205D10B480B4901600B480C4962
:1000F00001600C4880470C480047FEE7FEE7FEE73A
:10010000FEE7FEE7FEE70000E0120020040000002A
:100110001F00000018100240010000000000014014
:1001200000000000DD1F0008C100000830B50B46CC
:10013000014600202022012409E00D46D5409D42C1
:1001400005D31D469540491B254695404019154647
:10015000521E002DF1DC30BD03460B439B0703D03C
:1001600009E008C9121F08C0042AFAD203E00B787C
:100170000370401C491C521EF9D27047D2B201E0F4
:100180000270401C491EFBD270470022F6E710B5F2
:1001900013460A4604461946FFF7F0FF204610BDF5
:1001A000064C0125064E05E0E36807CC2B430C3CCA
:1001B00098471034B442F7D3FFF786FF04310008A4
:1001C00024310008002070470020704702490120B8
:1001D000087000207047000000000020704770B5D4
:1001E0000024014620314A78022A03D00421816389
:1001F000012416E0026813680E25AB431360026801
:1002000013685B085B0013600122056C1346AB406A
:10021000C56B6B604A7000220A70416B002900D0E8
:100220008847204670BD0000F8B5002389E001240E
:100230009C402A46A44622407ED04C68022C01D025
:10024000122C0CD1DC08A40027183C6A5D07ED0EC7
:100250000F26AE40B4430E69AE4026433E620568A9
:100260005E000324B4400F79A543BF07BF0FB7401A
:100270002F4307604D68012D05D0022D03D0112DAD
:1002800001D0122D0ED18568CF68A543B7402F430A
:10029000876047686546AF430D79ED06ED0F9D40D9
:1002A0003D434560C568A5438C68B4402C43C46099
:1002B0004C68E40044D5264CA56901263543A56168
:1002C000A4699D0834400094224CAD002F19BC68ED
:1002D0009D072E0F0F25B540AC430925ED06A8421A
:1002E00001D100250AE01C4DA84201D1012505E0FD
:1002F0001A4DA84201D1022500E00525B54025434D
:10030000BD60174C25684E689543F60300D515432C
:10031000256065684E689543B60300D51543656052
:10032000A5684E689543F60200D51543A560E568BB
:100330004E689543B60200E002E000D51543E56043
:100340005B1C0A681546DA4000D070E7F8BD000073
:10035000001002400000014000040048000800486E
:1003600000040140002A01D081617047816270471A
:1003700001480068704700008800002002480168BA
:10038000491C0160704700008800002010B5064835
:100390000168102211430160002000F007F800F00E
:1003A00017F8002010BD00000020024010B50446E0
:1003B00000F0A0FE7D21C900FFF7B8FE01F0E0F8D3
:1003C00000222146501E00F027F8002010BD00003A
:1003D00008B50A4881690122114381618169114090
:1003E0000091C26901040A43C261C06908400090DB
:1003F0000348016810221143016008BD001002404B
:1004000000000140C106C90E012088400149086072
:100410007047000000E100E010B501F0C9FB10BD1D
:1004200010B50C0606D54906490E1C246143081870
:10043000283004E01C2461430818FF30093099B2C9
:10044000002A06D001228272C180190C018100208D
:1004500010BD002282728180F9E71C224A431218E3
:1004600010B5FF30FF300230926BC06902F0C2FA63
:1004700010BD1C224A43121810B5FF30FF32FF3066
:10048000013202309269C06902F00FFB10BD00001A
:10049000F0B54A06520E13461C256A43CC091218C1
:1004A000002C01D0283201E0FF32093204461370DB
:1004B000C909FF345170E134217A01293DD001216D
:1004C0002172957A494B002D4949557837D0002D36
:1004D00005681678AC465BD0B600AD5B6F0404D5FA
:1004E000444F0D403D436746BD5305681678AC4602
:1004F000B600AD5B6F0605D53C4F0D4040373D4320
:100500006746BD5315780668AF00F55B0D40394965
:100510000D43F553364F117830373D40066889005A
:100520001D4375521178334A00688900F13A15402D
:100530001D43455200202072F0BD0220F0BD002D69
:1005400005681678AC4610D0B600AD5B6F0605D5D1
:100550000D40264940310D4361468D5305681078A2
:10056000234A8100685A30320EE0B600AD5B6F045A
:1005700004D50D401F490D4361468D530568107821
:100580001C4A8100685AF13A104018436852D1E77A
:10059000B600AD5B6F0404D5164F0D403D43674672
:1005A000BD5305681678AC46B600AD5B6F0605D541
:1005B0000E4F0D4040373D436746BD5315780768E1
:1005C000AE00BD5B0D40094940310D43BD53094F9D
:1005D0001678F13F3D400168B6001D438D531178F8
:1005E000034A890000683032A1E7000080800000E3
:1005F0008F8F000080C00000F0B54B06CA095B0E6B
:10060000002A04D01C225A431218283204E01C226B
:100610004A431218FF3209320024947013700346C3
:10062000C909FF335170E133197A01291AD0012128
:10063000197251781A4C00291178066814D08D006F
:10064000715B4F0603D52140164C2143715311783D
:1006500000688A00124C815A3034214010246140D5
:10066000202414E00220F0BD8D00715B4F0403D5FF
:1006700021400D4C21437153117800688A000A4CC7
:10068000815AF13C2140012424036140640061400F
:10069000044C403C2143815200201872F0BD000000
:1006A0008F8F0000C080000080C00000F0B54D06B4
:1006B0006D0E2E461C246543CF092C18002F01D047
:1006C000283401E0FF3409342670C90961700146FD
:1006D000FF31E260E131E3708C46097A01290DD0E7
:1006E000012261460A72E2789349002A08D0012A61
:1006F00020D0022A0DD0032A25D111E00220F0BD1E
:10070000237802689B00D55A0D40FF35FF3502352E
:1007100004E0237802689B00D55A0D40D55212E0C0
:100720002278036892009D5A0D40032149026918FE
:10073000995208E0237802689B00D55A0D400121A8
:1007400089026918D15226780768B5007B5B7B491E
:100750007B4A0B40134333437B53A57A002D53D080
:100760002578784E0B400768AD0033437B53E38810
:1007700050265D0803686D00F65AF6182378DF00EE
:1007800001239B02FB18F552238950265D0803685C
:100790006D00F65AF6182378DF005311FB18F55256
:1007A00063780768002B237875D09D007B5B5E041F
:1007B00003D5654E0B4033437B53237807689D0078
:1007C0007B5B5E0604D55E4E0B40403633437B5365
:1007D000237805689E00AB5B0B405B490B43AB5332
:1007E000564E2178303633400568890013436B52EA
:1007F0002178554C00688900F13C23401343435253
:10080000002061460872F0BD6378002BA3881FD0DA
:100810005D0803685026F65A6D00F6182378DF004D
:1008200001239B02FB18F552237807689D007B5B30
:100830005E0604D50B40424940310B437B530168AF
:1008400020783E4C8300C85A30342040202440E0B9
:100850005D0803685026F65A6D00F6182378DF000D
:100860003A4BFB18F55203685025ED5A374EEB18FA
:100870002578B61CED00AD195E19E3683E2B0BD947
:10088000DD022D0CDB0601D16D1EADB2AB020125E0
:10089000ED032B4307E020E0DD032D0CDB0701D047
:1008A0006D1CADB2AB023380237807689D007B5B83
:1008B0005E0403D50B4024490B437B530168207829
:1008C000214C8300C85AF13C20400124240360409D
:1008D000640060401043C85292E79D007B5B5E0459
:1008E00003D5194E0B4033437B53237807689D0093
:1008F0007B5B5E0604D5124E0B40403633437B5380
:10090000237805689E00AB5B0B400D4940310B43DB
:10091000AB530D4E2178F13E334001263603734030
:10092000760073400568890013436B522178034CAD
:1009300089000068303460E78F8900008F8F0000E5
:10094000808000008081000080C00000040400005E
:10095000F0B54D066D0E1C246C432418FF34093489
:10096000636122610022A26162702570E5681E4603
:10097000AB4201D92B46F21A6261A67A49060122DE
:10098000890DD203002E2F4D06680CD05027BF5B77
:10099000BE192F1FC91976183E2B15D9D902090C7B
:1009A000DF060CD00DE05027BF5B4919BE19751842
:1009B00020E08902114300E08902298032E0491ECB
:1009C00089B28902114306E0D903090CDF0701D07F
:1009D000491C89B2890231806178002902D001293D
:1009E00018D01FE001685026765A71182678F60054
:1009F00075194D193E2B06D9D902090CDB06D8D141
:100A0000491E89B2D5E7D903090CDA07D4D0491CAD
:100A100089B2D1E701685022525A51182278D20087
:100A200052198B5201682078074B8200885A18406F
:100A300001231B0358405B005840044B1843885265
:100A40000020F0BD060400008FBF00008080000081
:100A5000F0B50246FF32E132137A012B0BD00124AC
:100A60004F06CB097F0E1472002B06D01C237B434C
:100A70001B18283306E00220F0BD1C234B431B1833
:100A8000FF3309339C701F70CE095E70012424036C
:100A90001025114B002F0BD04906C90D002E10D088
:100AA00004680E4E605A304068401843605210E0AF
:100AB00001680B4E08883040604068401843088049
:100AC00007E00568064E685A303E304060401843E3
:100AD000685200201072F0BD80800000BF8F0000BF
:100AE000BFBF0000F0B506461D464806400E1C2359
:100AF00043439C19E563A263002222640123283446
:100B000063702070E0682B46854203D90546181AA9
:100B1000606100E06261A07A2A4F002810D022783C
:100B200030689200825C49065206890D002A16DA66
:100B30005022125A10183A1D89184552228914E081
:100B4000ABB2A2882169306801F005FA3068502103
:100B5000095A08182178C900C919455220E05022C5
:100B6000125A1018C9194552E288ABB2216930688F
:100B700001F0F1F961781448002902D0012907D069
:100B80000EE0217832688B00D15A01400F4805E011
:100B9000217832688B00D15A01400D480143D1526F
:100BA000207831688200084B885A3033184010236F
:100BB000584020235840054B403B184388520020A2
:100BC000F0BD0000020400008F8F0000C080000014
:100BD00080C0000070B50446006840308088C00BBB
:100BE00002D0204601F006F820684030818849058F
:100BF0000AD58188334A11408180204600F0DAF816
:100C00000021204600F008F920684030818849041E
:100C100003D581882C4A114081802068403081882A
:100C2000890403D58188294A114081802068403099
:100C300081880425C904002910DA0188A9430180AC
:100C4000BD202168000240310880204600F0C6F82F
:100C50002068403081881E4A1140818020684030E1
:100C60008188090517D581881A4A1140818020683A
:100C700040300188082211430180206840300188FB
:100C800029430180206840308088C043C00402D5D9
:100C9000204600F0EBF8206840308188890506D5B1
:100CA00081880D4A11408180204600F0ADF820680F
:100CB00040308188C90503D58188084A1140818068
:100CC00070BD0000FFFB0000FFBF0000FFDF000061
:100CD000FFEF0000FFF70000FFFD0000FFFE000037
:100CE000F8B500270446002807D02646FF36E1362F
:100CF000707A0025002802D005E00120F8BD357289
:100D0000204600F03BF80320707201210BE01C200C
:100D1000784302191046203041720772C57255633C
:100D200095637F1CD5636068B842F0D800200BE063
:100D30001C2242431219FF32013255721072D572D1
:100D400055619561401CD56162688242F0D8206887
:100D50004030018020684030058020684030858028
:100D6000206840300582BF20226800024032108097
:100D70002034257171720020F8BD000008B50068AC
:100D80000A49884210D10A48C2690121C9050A43AB
:100D9000C261C06900220840009011461F20FFF781
:100DA0003BFB1F20FFF72EFB08BD0000005C00404E
:100DB0000010024070B5044680680125022801D069
:100DC000FFF70CFAFF34FF3402342946E06901F0E2
:100DD00042FFE06901F007FF70BD000010B5044656
:100DE0008069002806D00748016906229143016105
:100DF00001F0CAF8FF34FF340234E06901F016FF55
:100E000010BD000000ED00E0FF3010B5FF300230F3
:100E1000C06901F011FF10BD0246FF32E132137AC2
:100E2000012B08D001231372002906D02030017154
:100E30000020107270470220704700688021403007
:100E40008181F5E710B5872189000A580146FF31F5
:100E5000ED31104601F00CFF10BD00684030018BF1
:100E60000122D203114301830020704710B50446CC
:100E7000FF30FF300230C06901F03DFFA06900285B
:100E800004D00348016906221143016110BD00002E
:100E900000ED00E0F8B5044600683E4DC00352D5B1
:100EA000E8690026C00007D4E96928040143E96124
:100EB000E96901400126009137480168C90510D44D
:100EC0000168821511430160FFF752FA074604E0FA
:100ED000FFF74EFAC01B642824D82F480068C005CD
:100EE000F6D5286A03273F02384020D06168394090
:100EF00081421CD0286A2A6AB843012109040A43A6
:100F00002A622A6A8A432A622862C0070FD0FFF742
:100F10002FFA009008E0FFF72BFA0099411A1F48BA
:100F2000814201D90320F8BD286A8007F3D5286AD9
:100F30006168B84308432862002E04D0E9690120A3
:100F400000078143E9612078C00705D0286BA168BC
:100F500080088000084328632078800605D5286B28
:100F600010218843E168084328632068800305D581
:100F7000286B8021884361690843286320884005E5
:100F800005D5286B40218843216908432863002048
:100F9000F8BD0000001002400070004088130000FF
:100FA000F8B505464E480E460068C007C00FB0426F
:100FB0000AD24B4801684908490031430160006882
:100FC000C007C00FB04270D12878464C800705D5C5
:100FD0006068F0218843A968084360602878C007EA
:100FE00053D06868012817D0022818D0032819D0D8
:100FF00021688907002958DA616889088900014356
:101000006160FFF7B5F969680746012913D0022925
:101010001DD0032927D034E021688903EAE721683D
:101020008901E7E7616BC903E4E7FFF7A1F9C11B99
:101030002D48814223D860680007800F0128F4D131
:1010400023E0FFF795F9C11B2748814217D8606854
:101050000007800F0228F4D117E0FFF789F9C11BC0
:10106000214881420BD860680007800F0328F4D123
:101070000BE0FFF77DF9C11B1B48814201D903201A
:10108000F8BD60680007800FF3D115480168C907F3
:10109000C90FB1420BD901684908490031430160C9
:1010A0000068C007C00FB04201D00120F8BD287809
:1010B000400706D56068072109028843E9680843AC
:1010C000606000F02DF86168084A0906090F515C5C
:1010D000C840074908600020FFF768F90020F8BD04
:1010E000002002400010024088130000EC3000088D
:1010F0008C00002001480068704700008C00002030
:101100000448054900684968044A4905490F515C8B
:10111000C84070478C00002000100240FC300008DE
:1011200030B516A30FCB89B06C460FC417A30FCBF5
:101130000FC41A494A680C20144604401848042C6D
:1011400005D0184B082C04D00C2C00D1184609B03F
:1011500030BD9402240F6D462C5DC96A04AD0907A9
:10116000090FD203695C920F022A02D0032A00D130
:101170001846FEF7DBFF6043E9E7000002030405C1
:10118000060708090A0B0C0D0E0F101001020304CC
:1011900005060708090A0B0C0D0E0F10001002407F
:1011A00000127A00006CDC02FEB504460078F04EB6
:1011B000F04DC00748D068680007800F01281FD095
:1011C00068680007800F022804D16868C003800F98
:1011D000022815D06168012919D001208004002956
:1011E00001D0052917D02968B143296029688143B6
:1011F0002960606800281BD0FFF7BAF8074613E0A3
:101200002868800320D56068002876D01CE0286814
:1012100030432860EDE7296801432960F7E7FFF7CD
:10122000A7F8C01B642869D828688003F7D50BE0AD
:10123000FFF79EF8074604E0FFF79AF8C01B642802
:10124000F1D828688003F7D4207880073ED56868F5
:101250000007800F14D068680007800F022804D1AF
:101260006868C003800F01280AD0E0680028286859
:101270001DD0012108432860FFF77AF807460BE0EC
:10128000286880070BD5E068012836D107E0FFF712
:101290006FF8C01B0228C6D828688007F7D52868D1
:1012A000F82188432169C900084328600EE04008FE
:1012B00040002860FFF75CF8074604E0FFF758F8A5
:1012C000C01B0228AFD828688007F7D42078000711
:1012D00024D5E0690028686A11D0012108436862BA
:1012E000FFF746F8074604E0FFF742F8C01B022864
:1012F00099D8686A8007F7D510E036E1D1E0400858
:1013000040006862FFF734F8074604E0FFF730F862
:10131000C01B022887D8686A8007F7D42078042782
:101320004007002861DA00200190E869C00008D475
:10133000E969B8060143E961E969014001200091CA
:1013400001908D480168C90511D4016882151143C7
:101350000160FFF70DF8009005E0FFF709F800992C
:10136000401A642897D884480068C005F5D5A0685D
:1013700001280AD0002801D0052811D0286A400889
:1013800040002862286AB84302E0286A0121084325
:101390002862A068002812D0FEF7EAFF00900AE059
:1013A000286A38432862F0E7FEF7E2FF0099411A05
:1013B0007248814275D8286A8007F5D50DE0FEF79E
:1013C000D7FF009006E0FEF7D3FF0099411A6B4863
:1013D000814266D8286A8007F5D40198002804D095
:1013E000E969012000078143E9612078C00635D50D
:1013F000606901280CD0401D686B24D038436863B5
:10140000686B400840006863FEF7B2FF074622E0C1
:10141000686B38436863686B012108436863FEF7B3
:10142000A7FF074604E0FEF7A3FFC01B022838D839
:10143000686B8007F7D5686BF8218843A169C900FC
:10144000084368630AE0B8436863F4E7FEF790FF77
:10145000C01B022825D8686B8007F7D42078800647
:1014600037D568680007800F032813D06868000725
:10147000800F022804D16868C003800F032809D0B8
:10148000206A0028686B16D030436863FEF770FF4F
:1014900006460CE0686BC0031BD5206A012864D1A6
:1014A00017E05BE0FEF764FF801B022856D8686BEC
:1014B000C003F7D50DE0B0436863FEF759FF064659
:1014C00004E0FEF755FF801B022847D8686BC00375
:1014D000F7D4606A002846D069680907890F022995
:1014E00043D0012636060228286805D0B04328607C
:1014F000FEF73EFF044633E0B0432860FEF738FFB6
:10150000074604E0FEF734FFC01B022826D82868EF
:101510008001F7D4E86A216B000900010843E86202
:10152000A16AE06A084369687B22D20391430843B9
:101530006860286830432860FEF71AFF044604E01C
:10154000FEF716FF001B022808D828688001F7D58F
:1015500009E0FEF70DFF001B022801D90320FEBDA4
:1015600028688001F5D40020FEBD0120FEBD0000EA
:1015700000000100001002400070004088130000CD
:10158000094910B5401E884201D9012010BD074C01
:1015900060610321081F00F00BFB0020A061072001
:1015A0002061002010BD0000FFFFFF0000E000E010
:1015B0007047704770B5040005D025462035687F18
:1015C000002802D006E0012070BD002028772046C8
:1015D00000F00AF802206877211D206800F034FD31
:1015E00001206877002070BD08B50068094988426D
:1015F0000FD10948C26981150A43C261C06900223E
:101600000840009011461320FEF706FF1320FEF756
:10161000F9FE08BD00200040001002400268D368B7
:1016200001210B43D360006802680A430260002076
:101630007047704770B50446006801690025C943CA
:101640008907002915DBC168C943890711D4E91E40
:10165000016101202077206880698007204602D040
:10166000FFF7E7FF04E000F096F8204600F094F85A
:10167000257720680169C943490717D4C168C94360
:10168000490713D40421C94301610220207720684F
:1016900080698005800F204602D0FFF7CAFF04E072
:1016A00000F079F8204600F077F825772068016986
:1016B000C943090716D4C168C943090712D40821D0
:1016C000C9430161042020772068C0698007204653
:1016D00002D0FFF7AEFF04E000F05DF8204600F016
:1016E0005BF8257720680169C943C90617D4C1682A
:1016F000C943C90613D41021C943016108202077CA
:101700002068C0698005800F204602D0FFF791FF56
:1017100004E000F040F8204600F03EF8257720680D
:101720000169C943C90708D1C168C943C90704D1C0
:10173000891E0161204600F031F820680169C94323
:10174000090609D4C168C943090605D48021C943E3
:1017500001612046FFF72CFF20680169C943490653
:1017600009D4C168C943490605D44021C943016170
:10177000204600F027F820680169C943890609D48A
:10178000C168C943890605D42021C94301612046A7
:10179000FFF70FFF70BD70477047000010B5402283
:1017A0000649074800F01AFF044900200A5C521C51
:1017B0000A54401C4028F9DB10BD00001401002031
:1017C000440400207047704770470000F8B5036874
:1017D0000446D869196805072D0F07D1820605D57B
:1017E0008A0603D5204600F031FDF8BD9A68002D29
:1017F00064D0D507ED0FFF2621360E402E435DD075
:10180000C60706D0CE0504D501261E62E36E33431B
:10181000E366870702230426002F06DAD70704D0E1
:1018200027683B62E76E3743E766470706D5D2076E
:1018300004D022681662E26E1A43E266020709D5F6
:1018400020220A402A4305D0236808221A62E36E48
:101850001343E366E26E002AC7D0800604D58806EB
:1018600002D5204600F0F2FCE06E000703D42068A9
:10187000806840061CD5204600F0CCFC20688168BA
:10188000490611D58168402291438160606E00282D
:101890000AD01A494163606EFEF7A1FC0028A4D06B
:1018A000606E416B8847F8BD2046FFF78DFFF8BD9D
:1018B0002046FFF789FF0020E066F8BDC5020DD580
:1018C00052020BD50120000518622021204660300D
:1018D000417281722046FFF776FFF8BD020605D5FA
:1018E0000A0603D5204600F087FDF8BD4006FCD56A
:1018F0004806FAD5204600F09CFCF8BD01220008FD
:1019000070B5040005D025466035687A002802D0FD
:1019100006E0012070BD00202872204600F026F865
:101920002420687220680168490849000160204647
:1019300000F0CAFC0128EDD0606A002802D02046E1
:1019400000F0C4FB206841680922D2029143416043
:10195000206881682A229143816020680168012201
:1019600011430160204600F017FC70BD10B586B031
:10197000044614216846FEF708FC16492068884290
:1019800025D11548C269012149040A43C261C269CF
:101990000A40059242690A43426140690840059045
:1019A0000C20009002200190002002900320039060
:1019B0000120049009206946C006FEF735FC00228C
:1019C00011461C20FEF728FD1C20FEF71BFD06B06B
:1019D00010BD00000044004000100240F0B5034676
:1019E00060339C7A202C44D100290BD0002A09D0E6
:1019F000012584682D03AC4206D10669002E03D16F
:101A0000CE0701D00120F0BD1E7A012E31D0012673
:101A10001E724165014640310A834A83FF27AC426A
:101A200004D10269002A12D1134A0EE07F22002C51
:101A300008D001252D07AC420AD10469002C04D03E
:101A40003F2202E00469002C01D08A8300E08F83EA
:101A50000021C16622229A72197201688A68324393
:101A60008A6000680168FF22213211430160002072
:101A7000F0BD0220F0BD0000FF01000010B5012202
:101A80000149FFF7ABFF10BD940100207047FEE74E
:101A900070B500231D460EE0040F0A2C02D25E0032
:101AA000303401E05E0037348C555C00641800016E
:101AB0005B1C6570DBB29342EED370BD70B586B02F
:101AC00014216846FEF761FB15484269012189052A
:101AD0000A43426142690A400592426949110A4338
:101AE0004261406909260840F606059000227021EF
:101AF0003046FEF737FC0B4801250024019069466B
:101B0000009502943046FEF78FFB702000900294FF
:101B10006946019503943046FEF786FB06B070BD1A
:101B2000001002400000111010B50A480849016079
:101B30004B214902416000218160C16001618161E6
:101B4000C1610C22016242614162FFF7D9FE10BD02
:101B500000440040D403002010B500220F49104873
:101B600000F01BFF002801D0FEF738FB0D490C48A0
:101B700001F0E7F8002801D0FEF730FB0A490848D9
:101B800000F022FD002801D0FEF728FB044801F0F8
:101B900029F9002801D0FEF721FB10BD0400002028
:101BA00044040020940000207800002070470000CA
:101BB0008307FF22DB0E9A408907090E994000280F
:101BC0000BDA0007000F0838830808489B00181834
:101BD000C36993430B43C3617047830804489B0068
:101BE0001B181868904308431860704700ED00E028
:101BF00000E400E0F0B585B0044600206946888026
:101C00002646203678E19A8917073F0F26D0B9007B
:101C10000291425A9A80998809047DD5BE490A40AA
:101C20000299425238461C2148430519FF350935AF
:101C3000A87A0028206870D029788A00825A520435
:101C40006CD55022125ACB00B44912185918515A67
:101C50008905890D00917DD0EA88BDE09A89D20678
:101C600027D40188AE4A25461140018020685021C2
:101C7000095A283508182978CA00A8495118405A25
:101C80008005800D2064A16B0818A0630021204608
:101C9000FEF7E3FB30790028B4D068690028B1D1A1
:101CA00030798021084321684031888100203071DB
:101CB00022E12546FF35028809359A809B881B055D
:101CC00019D5098A09182878C2009448001D1018EF
:101CD000085A294683059B0DAB61AA88E431206828
:101CE00000F024F920688C4A0188114001802046C8
:101CF000FFF7A8F800E1694689880904D8D5864924
:101D0000864F0A40028020685021095A3F1D091859
:101D10002878C000C01902E085E03DE04FE0085A95
:101D200083059B0DAB6108D0AA882969206800F063
:101D3000FDF8A96928694018286100212046FEF7AE
:101D400098FB206801464030008A4018C119E868B5
:101D50003E2800E044E00AD9C202120CC00601D1BC
:101D6000521E92B290020122D203104306E0C20337
:101D7000120CC00701D0521C92B290020880216858
:101D8000684A088810400122120350405200504017
:101D9000654A10430880AFE05021095A0A18297893
:101DA000CB005E49091D5918515A8905890D0091CA
:101DB00021D0AA882969009B00F0B8F81BE05022C6
:101DC000CB00125A55491218091D5918515A890544
:101DD000890D009104D02A892969009B00F0A6F89A
:101DE000297820688A004E4B815A803319404E4B27
:101DF000403319438152A96900980818A8612969DC
:101E000000980A182A616B69002B03D0E9680098D2
:101E1000814204D929782046FEF72BFB03E029787C
:101E20002046FEF795FD68468088000664D51C2094
:101E30004743206802993A4A415A3D191140029A93
:101E400028358152A87A0028206811D029788A0084
:101E5000825C52061ED55022125AC90012182F4811
:101E60000818105A83059B0DAB6124D0EA881EE048
:101E70005021095A09182878C20028481018085A11
:101E800083059B0DAB6121D0AA882969206800F0E9
:101E900062F81BE05022125AC90012181F48001D98
:101EA0000818105A83059B0DAB6104D02A89296953
:101EB000206800F050F8287822688000184B115AEA
:101EC00080331940174BF1331943115220685021C8
:101ED000095A09182878C20010481018085A8005B5
:101EE000800DA86129690A182A616B692978002B7D
:101EF00020460DD0FEF7F6FD2068014640318A8865
:101F00006B469A81120400D57DE6002005B0F0BD35
:101F1000FEF7A3FAF0E700008F0F000002040000B4
:101F20000F8F00008FBF000080800000101810B5D8
:101F3000012292025C088018002C07D002880A70E7
:101F4000120A4A70801C891C641EF7D1DA0701D07E
:101F50000078087010BD101801225B1C920210B5A9
:101F60005B088018002B08D04A780C7812022243B4
:101F70000280801C891C5B1EF6D110BD7047704723
:101F800010B5FEF7FBF910BD10B598B034216846C6
:101F9000FEF7FBF800240D940E940F94182111A85D
:101FA0001094FEF7F2F82020009001200890099488
:101FB0006846FFF7F9F807200D9003200E900F9464
:101FC000012110940DA8FEF7EBFF012040041694A8
:101FD000119011A8FEF75EFF18B010BD13480168FC
:101FE0000122114301604168114A114041600168BA
:101FF000104A11400160016801229204914301607E
:1020000041683F22120491434160C16A09090901F4
:10201000C162016BFF22D43291430163416B4908D5
:1020200049004163002181607047000000100240B8
:102030000CB8FF08FFFFF6FE10B50248FFF7FAFAEA
:1020400010BD000094030020F0B502681A4B012473
:10205000A4071A4D984203D0A04201D0A84203D150
:102060007026B2434E683243154E164F98420AD03E
:10207000A04208D0A84206D0134CA04203D0B042E0
:1020800001D0B84204D103242402A243CC682243E5
:102090008024A2434C69224302608A68C2620A68B3
:1020A0008262984203D0B04201D0B84201D109699E
:1020B000016301214161F0BD002C0140000400409A
:1020C00000440140004801400020004010B5818CD0
:1020D000C90707D001684A6801235B049A43836AF1
:1020E0001A434A60818C890707D501684A68012331
:1020F0001B049A43C36A1A434A60818C490707D577
:1021000001684A6801239B049A43036B1A434A609F
:10211000818C090707D501684A680123DB039A43CC
:10212000436B1A434A60818CC90607D502689168DF
:1021300001231B039943836B19439160818C8906AA
:1021400007D501688A6801235B039A43C36B1A436E
:102150008A60818C490612D503685A6801210905F5
:10216000046C8A4322435A60026C8A4207D1026897
:10217000516803235B059943436C19435160818C7B
:10218000090607D501684A680123DB04806C9A437D
:1021900002434A6010BD0000F8B500260446C6663A
:1021A000FEF7E6F805461449206888421DD100680C
:1021B000124F000709D501212B4600224905204670
:1021C000009700F04CF900280DD120680068400706
:1021D0000BD501212B46002289052046009700F0EF
:1021E0003EF9002801D00320F8BD20206034607241
:1021F000A07226720020F8BD00380140FFFFFF01E9
:1022000010B5406A0022014640314A834A82FFF7F6
:10221000DBFA10BD01680A68FF2321339A430A6084
:1022200001688A68520852008A60202160308172F9
:10223000704710B501680A6840239A430A6020225B
:1022400069210A54FFF722FC002010BD70B5024638
:10225000403203466033948B9D7A0168222D05D06D
:102260008869082210438861022070BD898C01268C
:1022700085683603B54202D10569002D0BD0214097
:10228000446D651C45652170518B491E0904090C7C
:10229000518307D015E0456D21402980416D891C8F
:1022A0004165F1E701680A68FF242134A2430A600E
:1022B00001688A68520852008A6020219972FFF7EB
:1022C000DDFB002070BD0000F8B504462369A2685C
:1022D000E5691A43636910202B43002125681A43DE
:1022E0002B680E463E4F3B4013432B6023685A68D1
:1022F00003252D03AA43E5682A435A60236AA2698D
:1023000025681A43AB680B273F02BB431343AB60FE
:10231000344A2568954210D1334A126B9207920FC6
:102320000ED0012A05D0022A05D0032A09D10220A5
:1023300007E0042005E0082003E02C4A954200D184
:1023400000200122E369D203934224D100280CD05B
:1023500002280DD0042813D0082817D001260A0916
:1023600012010807400F10432FE0FEF7C9FE09E0F5
:1023700061681F4A48088018FDF7D8FE81B2EEE771
:10238000FEF7CEFE616840004A08F4E7616801226A
:1023900048081204EFE7002808D0022809D00428D2
:1023A0000BD0082814D001263046F8BDFEF7A8FE51
:1023B00005E061680F4A48080CE0FEF7B1FE61686D
:1023C0004A088018FDF7B2FE80B22168C860EBE7CA
:1023D000616848088018FDF7A9FE80B2E860E3E76D
:1023E000F369FFEF00380140001002400044004054
:1023F0000024F40000127A006921095C212901D02F
:102400000220704702464032518A002912D001232F
:1024100081681B03994202D10169002915D0C16C62
:102420004B1CC364006809780185508A401E5082A5
:102430000020704701680A6880239A430A60006898
:102440000168402211430160F2E7C16C036809880A
:10245000C905C90D1985C16C891CC164E5E7FFB5C3
:1024600081B017460E4604460A9D1DE0681C1BD02D
:10247000002D05D0FDF77CFF0499401AA84213D91E
:1024800020680168FF22A1329143016020688168C1
:10249000490849008160202060346072A0720020E9
:1024A0002072032005B0F0BD2068C1693046884322
:1024B00004D00020B842D9D00020F3E70120F9E78A
:1024C00010B50248FFF782F910BD0000D4030020C8
:1024D000FF30FF300230806900214030017408462F
:1024E000704770B5C51DFF35FA35AC69EA69064617
:1024F000D2686178207890474023224601213046F7
:1025000000F067FB002070BD10B50446812100F08B
:1025100067FA0121204600F063FAFF34FF340234E9
:10252000A069002807D0E06980688047A06900F0B2
:1025300067FD0020A061002010BDFF3010B5FF3006
:1025400002308469E16C012907D1C0692278C3682F
:102550006178104698470020E064002010BD00001C
:102560002921018000487047D00000200A21018005
:10257000004870470801002070B50446002640233B
:102580000322812100F018FB402303220121204671
:1025900000F012FB542000F035FDE11DFF31FA314F
:1025A000886100280ED00546002240300274C869B8
:1025B0004068804740232A460121204600F009FB5D
:1025C000304670BD0126FBE702460220002904D0F8
:1025D000FF32FF3202320020D161704710B513463E
:1025E000FF244322FD34D200245C1258032C09D16D
:1025F0004032147C002C05D1012414740A46812138
:1026000000F081FB002010BDF8B5C41DFF34FA3482
:10261000002225460E78A469602713463E4026D046
:10262000202E49D14A78921E130000F007FD0A11AE
:10263000091C1C1C1C1C150D061C887820643BE022
:102640000122214640312EE04888000A606433E0D0
:1026500001222146443126E00122E2648A792146A2
:1026600000F050F828E000F043F80220F8BD4E7862
:10267000062E04D00A2E19D00B2E1DD11AE04C883C
:10268000240A222C02D0212C07D00BE0CA88222A4F
:1026900000D92222E9690B6804E0CA88074B092A9D
:1026A00000D90922194600F049F805E00122214627
:1026B0004831F8E78878A0640020F8BDFC000020CD
:1026C00010B585229200125852689047002010BD24
:1026D000134610B50A46002100F07BFA002010BD19
:1026E000134610B50A46002100F00DFB002010BD76
:1026F00010B50446802100F0EAFA0021204600F0DF
:10270000E6FA10BD10B5FF230324F5331C50C31D9A
:10271000F9339A60DA6013460A46002100F059FA4C
:10272000002010BD10B5FF210522F5310A5000230D
:102730001A46194600F04DFA002010BD10B5FF23CF
:102740000224F5331C5082611346C2610A460021FF
:1027500000F0D9FA002010BD10B5FF210422F53198
:102760000A5000231A46194600F0CDFA002010BD89
:1027700010B50A46024903A000F0E1F8004810BD78
:10278000E0080020437573746F6D2048494420436E
:102790006F6E66696700000012200880004870476D
:1027A0002400002010B50A46024903A000F0C7F833
:1027B000004810BDE0080020437573746F6D204819
:1027C000494420496E7465726661636500000000CB
:1027D00004200880004870472000002010B50A46F9
:1027E000024903A000F0ABF8004810BDE00800204B
:1027F00057656953686958756E44610010B50A469B
:10280000024903A000F09BF8004810BDE00800203A
:1028100056525F52656365697665720010B51A207D
:1028200008800948046BC16A406B081809D0082267
:102830000649FFF72DF90549042210312046FFF71C
:1028400027F90248801E10BD80F7FF1F3A000020C4
:10285000F8B50D4604464988FF300A0AFF300230B9
:10286000130000F0EBFB08500509165050454D5081
:102870000069237C026817E0217C02264069002958
:1028800005D0C16A684688470146467047E0816ABC
:10289000F8E7CAB2130000F0D1FB06040B0F161ABA
:1028A0001E240069237C426869461846904716E05A
:1028B0000069227C836802E00069227CC368694663
:1028C000104698470BE00069227C0369F7E700692E
:1028D000227C4369F3E70069227C8369EFE70146C4
:1028E0001DE04069C9B2836B6A4620469847F6E707
:1028F000217C002907D14069416B68468847EEE793
:10290000217C002904D029462046FFF7F1FEF8BDBE
:102910004069016B68468847072201464270684655
:1029200000880028F3D0EA88002AF0D0824200D93B
:102930000246684602802046FFF700FFF8BD70B5EA
:10294000002300281CD00446002502E06D1CEDB2D7
:10295000641C2678002EF9D16C00A41C1480CC5481
:1029600003225B1CCA5400245B1C06E0CA545B1C97
:10297000DAB28C54521CD3B2401C0278002AF5D132
:1029800070BD01460020002904D0012901D0022990
:1029900001D0022070470120704710B5002813D0E5
:1029A000C31DFF33FA335C69002C01D000245C6145
:1029B000002900D01961FF210123FD310B54027061
:1029C00000F0AEF8002010BD022010BDFF3010B5A1
:1029D000FF300230006AFDF70FFEFFF7D2FF10BD97
:1029E000FF3010B5FF300230006AFDF751FDFFF7F0
:1029F000C8FF10BDFEB50446FF30E51DE130FF35D0
:102A0000FA3513460190002908D068694269002A06
:102A100049D00198007F032843D044E02646FF3682
:102A200081362046716F1430022934D1C268816822
:102A30000092914207D9891A81608AB219462046CC
:102A4000FFF74EFE13E0406811460746FDF76EFBA8
:102A5000002913D10098874210D3B06F87420DD25E
:102A6000002211462046FFF73BFE0020B0670023FE
:102A70001A461946204600F0ACF80CE06869C168B7
:102A8000002905D00198007F032801D120468847FE
:102A90002046FFF747FE2878012804D1002028703F
:102AA00001E0204690470020FEBD70B50546FF3589
:102AB000E1352B46203316460446002907D05869D5
:102AC0008269002A29D0287F032824D025E0FF210D
:102AD000F531E01D0959FD3003291ED18268C16816
:102AE0008A420BD9511A8160C068814200D30146E5
:102AF0008AB231462046FFF7EBFD0EE058690169C6
:102B0000002904D0287F032801D120468847204689
:102B1000FFF722FE01E020469047002070BD000034
:102B200010B51949C41DC861FF341849FA34184852
:102B30002162086008204860022088600861002047
:102B40008861C86108620846FEF7CAF8002801D00B
:102B5000FDF744FB002218231146206AFDF760FCB4
:102B6000582300228021206AFDF75AFC9823002276
:102B70008121206AFDF754FCD82300220121206A1C
:102B8000FDF74EFC002010BDC0080020C00600204C
:102B9000005C0040FF30CA09FF3049060230490E90
:102BA0001C23006A59430818002A01D0203001E094
:102BB000FF300130807A704710B5FF301C46FF307F
:102BC00002301346006A2246FDF770FDFFF7D9FE7A
:102BD00010BDFF3010B5FF300230006AFDF7B8FEBF
:102BE000FFF7CFFE10BD70B500220446402311460A
:102BF000FFF7E2FF4025FF20113005512B46002250
:102C000080212046FFF7D8FFFF200121FD302562FB
:102C10000155E01DFF30FA308169002904D0406978
:102C20002179426820469047002070BDFF30E13096
:102C3000417F01770020704710B5FF21FD31095C0D
:102C4000032906D1852189000958C969002900D0C6
:102C50008847002010BD017400207047FF3010B578
:102C6000FF300230006AFEF7D7F8FFF78AFE10BD8A
:102C700070B504464120C0002018054600F04DF80C
:102C80002146FF3181310122084680304A67C289DE
:102C90008A67007AC106C90E0AD001290DD002291F
:102CA00010D0C109C901204600F011F8002070BD04
:102CB0002946204600F09BF8F8E72946204600F018
:102CC00082F9F3E72946204600F008F9EEE7FF30E5
:102CD00010B5FF300230006AFDF7BAFEFFF751FE73
:102CE00010BDFF3010B5FF300230006AFEF7B5F8B6
:102CF000FFF747FE10BDFF30E130017F417704212F
:102D0000017700207047FF3010B5FF300230006AB5
:102D1000FDF7E8FEFFF735FE10BD0A7802704A782D
:102D20004270CB788A781B02D21842804B790A799C
:102D30001B02D21882808A79C97909025118C18090
:102D4000704702460020002904D0FF32FF320232D1
:102D5000516170470220704710B5852292001258C9
:102D60000224002A04D012689047002800D10024D1
:102D7000204610BD70B50E468978194D044629705D
:102D8000012904D931462046FFF7B2FC70BD204628
:102D9000FF30E130027F022A15D0032AF2D1002948
:102DA00017D0606888420AD0C1B22046FFF788FC7D
:102DB000297861602046FFF7CFFF0228E2D0204645
:102DC000FFF7CAFC70BD0029F9D0032261600277C9
:102DD000F0E70222027720466160FFF771FCEEE720
:102DE0009000002010B5FFF77CFF002010BDF8B563
:102DF00000220092C61DFF364C781746FA3632463E
:102E00000125203A230000F019F90A3C56415041AF
:102E10000906412B2841FFF71BFD5DE00446888829
:102E2000002818D1C888002815D18878174646068A
:102E3000107F760E03280ED0BE7731462046FFF76E
:102E40000DFF2046FFF788FC002E02D002203877C5
:102E500042E03D7740E0204618E0FFF78BFF3BE083
:102E6000CB88012B12D1127F022A02D0032A0DD166
:102E700004E0012201460831876013E00122011DB0
:102E800010E0127F022A04D0032A02D0FFF730FCA0
:102E900022E0C5607168002901D00321C1600146AC
:102EA00002220C31FFF74AFC16E00446488801284C
:102EB00012D1756009E00446107F022801D0032872
:102EC000C9D14888012807D1776070698268204697
:102ED00090472046FFF740FC0098F8BDF8B504463F
:102EE0000D462878E61D4006FF3600270979800F39
:102EF000FA36012809D06A7830462038002A38D0BE
:102F0000012A1ED0032A3DD106E070692946826855
:102F1000204690470020F8BD007F022817D00328E4
:102F20002CD16888002806D1002904D0802902D03D
:102F30002046FFF7CCFE70692946826820469047FC
:102F400013E0007F022802D0032817D104E00029F3
:102F500018D080291AD115E06888002812D14806B7
:102F600003D02046FFF732FDE5E72046FFF7F4FBEC
:102F700008E0007F022807D003280BD0294620460E
:102F8000FFF7B6FB3846F8BD4806FBD02046FFF7F2
:102F90009EFEF7E7C80904D04806400D0519143510
:102FA00004E04806400D0519FF3505352046FFF7BA
:102FB000F1FD002800D00120286002222946204689
:102FC000FFF7BCFBDEE770B50446FF30E130007F61
:102FD0000D4603280FD1287901280CD885208000C0
:102FE0000059826820469047E888002806D120468C
:102FF000FFF7B2FB02E02046FFF77AFB002070BD2E
:1030000070470000004870476806002010B5064B66
:10301000024600209B6903E01C5C1470401C521C9B
:103020008842F9D3084610BD4406002010B5024876
:10303000FDF7D0FD10BD0000C006002030B474467E
:10304000641E2578641CAB4200D21D46635D5B00A4
:10305000E31830BC184702E008C8121F08C1002A54
:10306000FAD170477047002001E001C1121F002A09
:10307000FBD17047FDF78AF9FEF786FFFEF71EFDCC
:10308000FEF752FDFEF768FD144813490160002465
:103090002F218460416012490461C16080218161F7
:1030A000FEF788FA0D48FEF7B9FA0C4801220D49DF
:1030B0004030FEF793FC0C4D28780128FCD10948DC
:1030C00080214038FFF7A2FF064940224039881A84
:1030D000FDF742F82C70EFE7002000409403002039
:1030E0000F270000940100200000002000000000D5
:1030F00000000000010203040607080900000000A8
:103100000102030424310008000000201401000023
:10311000563000083832000814010020CC1100009D
:10312000663000080000000099270008D127000839
:10313000DD270008FD2700081D280008712700086A
:10314000A527000804030904120100020000004042
:103150008304505700020102030100001A0300001B
:10316000000000000000000000000000000000005F
:10317000000000000000000006FF000901A1010995
:103180000315002600FF750895408102090415000B
:103190002600FF750895409102C0000054000020F1
:1031A000C9010008C5010008CD01000800000000A9
:1031B00000127A00000000007925000809250008A7
:1031C00009260008000000003B250008D124000863
:1031D000E3240008000000000000000000000000E0
:1031E0006125000861250008612500086D2500089B
:1031F0000000000009022900010100C0320904009A
:103200000002030000000921110100012222000731
:103210000581034000100705010340001000000075
:103220000921110100012222000000000A0600020B
:08323000000000400100000055
:04000005080000C12E
:00000001FF
